S013000053746570706572333234412E7372656354
S11300003DC0000056C0000054C0000052C00000B3
S113001050C000004EC000004CC000004AC00000A8
S113002048C0000052C1000044C0000042C00000AB
S113003040C000003EC000003CC000003AC00000C8
S113004038C0000036C0000034C0000032C00000D8
S113005030C000002EC000002CC000002AC00000E8
S113006028C0000026C0000024C0000022C00000F8
S113007020C000001EC000001CC0000011241FBED0
S1130080CFEFD8E0DEBFCDBF11E0A0E0B1E0E8E102
S1130090F3E002C005900D92AE30B107D9F721E02C
S11300A0AEE0B1E001C01D92A231B207E1F778D011
S11300B031C1A6CF08951092C50083E38093C40094
S11300C0A1ECB0E088E18C93E2ECF0E08EE0808378
S11300D088E98C9386E080830895CF93DF93DC01D5
S11300E09C91992369F01196E0ECF0E0C6ECD0E025
S11300F0292F908195FFFDCF28839D919111F8CFF1
S1130100E0ECF0E0808185FFFDCF8DE08093C600B8
S1130110DF91CF910895CF939FED980F9D3570F4A3
S1130120C82F83E091E0D9DFE0ECF0E0908195FF07
S1130130FDCFC093C60080E091E0CFDFCF9108955A
S1130140CF9384E3E8DF85E3E6DF87E3E4DFE0ECF5
S1130150F0E080818823ECF788E3DDDFC091C600FE
S113016086E3D9DF8C2FCF91089588BD5A9A0895DC
S113017087BD5B9A089518BC8BB11BB8089517BC52
S11301808BB11BB8089581EF84BD8AE085BD17BC8F
S113019018BC84B1886184B98AB18C608AB9089525
S11301A089DFF1DF18D07BD086DF80E3B4DF8FEF07
S11301B090E0DEDF81E3AFDF81E090E020D0DFDF9D
S11301C0DADF82E3A8DFBCDFA6DF8FEF90E0CDDFCC
S11301D083E3A1DFECCFE0E8F0E08081826A8083F2
S11301E0E1E8F0E080818B61808383EC99E0909377
S11301F08700809386008AB180638AB90895CF937B
S1130200DF93181619060CF047C020E030E0B4E282
S1130210A0E2F0E3E0E178E168E05CE044E0B8B952
S1130220C3ECD9E02197F1F700C00000A8B9C3ECF2
S1130230D9E02197F1F700C00000F8B9C3ECD9E088
S11302402197F1F700C00000E8B9C3ECD9E0219789
S1130250F1F700C0000078B9C3ECD9E02197F1F7B9
S113026000C0000068B9C3ECD9E02197F1F700C0E1
S1130270000058B9C3ECD9E02197F1F700C00000A1
S113028048B9C3ECD9E02197F1F700C000002F5F13
S11302903F4F8217930719F6DF91CF91089589EFA5
S11302A08093B300E0EBF0E0808182608083E0E73C
S11302B0F0E0808182608083E1EBF0E08081836004
S11302C0808385B3827085BB08951F920F920FB609
S11302D00F9211248F939F93AF93BF9380910E013C
S11302E090910F01A0911001B09111010196A11DEF
S11302F0B11D80930E0190930F01A0931001B09350
S11303001101BF91AF919F918F910F900FBE0F90EC
S10B03101F901895F894FFCF2B
S11103185D0A0052656365697665643A5B00B0
S9030000FC
