:100000000C943E000C9448000C9448000C9448005A
:100010000C9448000C9448000C9448000C94480040
:100020000C9448000C9448000C9448000C94480030
:100030000C9448000C9448000C9448000C94480020
:100040000C9448000C9448000C9448000C94480010
:100050000C9448000C9448000C9448000C94480000
:100060000C9448000C9448000C9448000C944800F0
:100070000C9448000C9448000C94480011241FBEB6
:10008000CFEFD8E0DEBFCDBF0E944A000C947500D0
:100090000C9400008FEF87B90E94670000E010E029
:1000A000C02FD12F8C2F0E9464009FE32DE083E0AE
:1000B000915020408040E1F700C000002196C1151A
:1000C00091E0D90779F7ECCF8093B3000895E0EB86
:1000D000F0E08081836A8083E1EBF0E080818460DE
:0E00E00080838AB1806C8AB90895F894FFCFAE
:00000001FF
