:100000003DC0000056C0000054C0000052C00000B7
:1000100050C000004EC000004CC000004AC00000AC
:1000200048C0000046C0000044C0000042C00000BC
:1000300040C000003EC000003CC000003AC00000CC
:1000400038C0000036C0000034C0000032C00000DC
:1000500030C000002EC000002CC000002AC00000EC
:1000600028C0000026C0000024C0000022C00000FC
:1000700020C000001EC000001CC0000011241FBED4
:10008000CFEFD8E0DEBFCDBF11E0A0E0B1E0EAE6FF
:10009000F1E002C005900D92AE30B107D9F721E032
:1000A000AEE0B1E001C01D92AE30B207E1F750D032
:1000B0005AC0A6CF08951092C50083E38093C40070
:1000C000A1ECB0E088E18C93E2ECF0E08EE080837C
:1000D00088E98C9386E080830895CF93DF93DC01D9
:1000E0009C91992369F01196E0ECF0E0C6ECD0E029
:1000F000292F908195FFFDCF28839D919111F8CFF5
:10010000DF91CF910895CF939FED980F9D35B0F477
:10011000C82F83E091E0E1DFE0ECF0E0908195FF13
:10012000FDCFC093C60080E091E0D7DFE0ECF0E0C7
:10013000808185FFFDCF8DE08093C600CF9108952B
:10014000E0ECF0E080818823ECF78091C600089510
:10015000B1DFB1DFF5DFD7DF8FE19EE40197F1F783
:0A01600000C00000F7CFF894FFCFB5
:0E016A005D0A0052656365697665643A5B0064
:00000001FF
