:100000003DC000004EC000004CC000004AC00000CF
:1000100048C0000046C0000044C0000042C00000CC
:1000200040C000003EC000003CC000003AC00000DC
:1000300038C0000036C0000034C0000032C00000EC
:1000400030C000002EC000002CC000002AC00000FC
:1000500028C0000026C0000024C0000022C000000C
:1000600020C000001EC000001CC000001AC000001C
:1000700018C0000016C0000014C0000011241FBEEC
:10008000CFEFD8E0DEBFCDBF11E0A0E0B1E0E6E009
:10009000F1E002C005900D92A830B107D9F725D044
:1000A00030C0AECF08951092C50083E38093C400A2
:1000B00088E18093C1008EE08093C2000895E0EC57
:1000C000F0E0908195FFFDCF8093C6000895CF9317
:1000D000DF93EC018881882329F02196F0DF899154
:1000E0008111FCCFDF91CF910895DCDFDCDF80E070
:1000F00091E0EDDF8FE19EE40197F1F700C0000091
:06010000F6CFF894FFCFDA
:08010600544553540A0D00009A
:00000001FF
