S02400004D4547415F554152545F494E544552525550545F4558414D504C45322E7372656382
S113000033C000004CC000004AC0000048C00000DB
S113001046C0000044C0000042C0000040C00000D0
S11300203EC000003CC000003AC0000038C00000E0
S113003036C0000034C0000032C0000030C00000F0
S11300402EC000002CC0000073C0000029C00000B6
S113005026C0000024C0000022C0000020C0000010
S11300601EC000001CC0000011241FBECFEFD8E04A
S1130070DEBFCDBF11E0A0E0B1E0E6E6F4E002C0EF
S113008005900D92A231B107D9F721E0A2E1B1E0C8
S113009001C01D92A43EB207E1F798D0E2C1B0CFEF
S11300A01F920F920FB60F9211242F933F934F93E9
S11300B05F938F939F93AF93BF93EF93FF93EFED72
S11300C0F1E0918180819817F9F0918180819813F2
S11300D001C0FFCFEFEDF1E08181A381B481A80FCE
S11300E0B11D9C918181482F50E0228130E0215044
S11300F031094217530711F08F5F01C080E08093EC
S1130100E0019093C60005C0E1ECF0E080818F7DB2
S11301108083FF91EF91BF91AF919F918F915F91F8
S11301204F913F912F910F900FBE0F901F901895F4
S11301301F920F920FB60F9211242F933F934F9358
S11301405F936F937F938F939F93AF93BF93EF933B
S1130150FF939091C600EAEDF1E041818081682F20
S113016070E0228130E0215031096217730711F0E9
S11301708F5F01C080E0481301C0FFCFEAEDF1E0DA
S11301808081A381B481A80FB11D9C938081482FE5
S113019050E0228130E0215031094217530711F019
S11301A08F5F01C080E08093DA01FF91EF91BF91EE
S11301B0AF919F918F917F916F915F914F913F91FB
S11301C02F910F900FBE0F901F901895CF93DF9330
S11301D0CDB7DEB769970FB6F894DEBF0FBECDBFBB
S11301E0F8941092C5008CE08093C400E0ECF0E039
S11301F080818260808388E98093C10086E0809357
S1130200C2001D8A1E8A84E68F8B22E131E0398F79
S1130210288F95E0FE017596DE01509601900D92AF
S11302209A95E1F795E0FE017096DE011B96019028
S11302300D929A95E1F795E0FE013B96AFEDB1E0A2
S113024001900D929A95E1F71D8A1E8A8F8B86E79D
S113025091E0998F888F85E0FE017596DE011696F0
S113026001900D928A95E1F785E0FE013696DE0154
S1130270119601900D928A95E1F785E0FE01319681
S1130280AAEDB1E001900D928A95E1F778940F2ED2
S1130290FAED6F2EF1E07F2EF02D20E001E111E068
S11302A0EFEDF1E041EC50E0322F0F2EFDE59F2EF3
S11302B0F02DD30111969C9111978C919817C9F345
S11302C011969C9111978C91981301C0FFCFD30183
S11302D011966C91119713968D919C911497860F9A
S11302E0911DDC01DC90D30111968C911197E82EBD
S11302F0F12C12966C9170E061507109E616F706C4
S113030011F08F5F01C0822FD30111968C9360E0AE
S113031071E0918180819813FCCFDB01BD90BD0118
S1130320F89491818081981304C0DA018C918062E1
S11303308C93A180C0808C2D90E0E280F12CB1E000
S1130340EB1AF1088E159F0519F081E08C0D01C0A0
S1130350832FA81201C0FFCFF080838194818F0D79
S1130360911DDC01BC92C0808C2D90E0E280F12CC8
S1130370B1E0EB1AF1088E159F0519F081E08C0DA0
S113038001C0832F808378940617170709F0C1CF23
S1130390918180819813FCCFF89491818081981386
S11303A004C0DA018C9180628C9391818081E82E63
S11303B0F12C628170E061507109E616F70611F0C4
S11303C08F5F01C0822F981301C0FFCF60818381AA
S11303D09481860F911DDC01DC928081E82EF12C42
S11303E0628170E061507109E616F70611F08F5FC3
S11303F001C0822F80837894918180819813FCCFEF
S1130400F89491818081981304C0DA018C91806200
S11304108C9391818081E82EF12C628170E061508F
S11304207109E616F70611F08F5F01C0822F981349
S113043001C0FFCF608183819481860F911DDC010F
S11304409C928081E82EF12C628170E061507109E8
S1130450E616F70611F08F5F01C0822F808378942F
S109046028CFF894FFCF41
S113046649206A7573742072656365697665643AB2
S10504765B0025
S9030000FC
