S02400004D4547415F554152545F494E544552525550545F4558414D504C45322E7372656382
S113000033C000004CC000004AC0000048C00000DB
S113001046C0000044C0000042C0000040C00000D0
S11300203EC000003CC000003AC0000038C00000E0
S113003036C0000034C0000032C0000030C00000F0
S11300402EC000002CC0000073C0000029C00000B6
S113005026C0000024C0000022C0000020C0000010
S11300601EC000001CC0000011241FBECFEFD8E04A
S1130070DEBFCDBF11E0A0E0B1E0E2EFF4E002C0EA
S113008005900D92A831B107D9F721E0A8E1B1E0BC
S113009001C01D92AA3EB207E1F798D028C2B0CFA2
S11300A01F920F920FB60F9211242F933F934F93E9
S11300B05F938F939F93AF93BF93EF93FF93E5EE7B
S11300C0F1E0918180819817F9F0918180819813F2
S11300D001C0FFCFE5EEF1E08181A381B481A80FD7
S11300E0B11D9C918181482F50E0228130E0215044
S11300F031094217530711F08F5F01C080E08093EC
S1130100E6019093C60005C0E1ECF0E080818F7DAC
S11301108083FF91EF91BF91AF919F918F915F91F8
S11301204F913F912F910F900FBE0F901F901895F4
S11301301F920F920FB60F9211242F933F934F9358
S11301405F936F937F938F939F93AF93BF93EF933B
S1130150FF939091C600E0EEF1E041818081682F29
S113016070E0228130E0215031096217730711F0E9
S11301708F5F01C080E0481301C0FFCFE0EEF1E0E3
S11301808081A381B481A80FB11D9C938081482FE5
S113019050E0228130E0215031094217530711F019
S11301A08F5F01C080E08093E001FF91EF91BF91E8
S11301B0AF919F918F917F916F915F914F913F91FB
S11301C02F910F900FBE0F901F901895CF93DF9330
S11301D0CDB7DEB769970FB6F894DEBF0FBECDBFBB
S11301E0F8941092C5008CE08093C400E0ECF0E039
S11301F080818260808388E98093C10086E0809357
S1130200C2001D8A1E8A84E68F8B28E131E0398F73
S1130210288F95E0FE017596DE01509601900D92AF
S11302209A95E1F795E0FE017096DE011B96019028
S11302300D929A95E1F795E0FE013B96A5EEB1E0AB
S113024001900D929A95E1F71D8A1E8A8F8B8CE797
S113025091E0998F888F85E0FE017596DE011696F0
S113026001900D928A95E1F785E0FE013696DE0154
S1130270119601900D928A95E1F785E0FE01319681
S1130280A0EEB1E001900D928A95E1F7789440E0F8
S113029020E030E0E5EEF1E00F2EF1ECEF2EF12C52
S11302A0F02D50E0918180819813FCCF20503F4F76
S11302B0D9016C91F89491818081981304C0D7017D
S11302C08C9180628C9391818081082F10E022812F
S11302D030E0215031090217130711F08F5F01C07C
S11302E0852F981301C0FFCF208183819481820FD1
S11302F0911DDC016C938081682F70E0228130E0D5
S1130300215031096217730711F08F5F01C0852FE7
S1130310808378944F5F242F30E02B30310508F42C
S1130320C1CF0F2EF0EE6F2EF1E07F2EF02D20E0E6
S1130330122F66E171E0E5EEF1E081EC90E00DE56D
S1130340D3011396ED90FC90149712964C9150E0C3
S113035041505109D3011196DC9011973C91D31669
S1130360C9F31196DC9011973C91D31201C0FFCFD1
S1130370D30111963C916701C30ED11CD601BC90E8
S1130380D30111963C91C32ED12CC416D50611F07D
S11303903F5F01C0312FD30111963C93BB20D1F2B2
S11303A04CE051E0F1803081F312FCCFDA01AD90E2
S11303B0AD01F894F1803081F31204C0DC013C916A
S11303C030623C9391803081C32ED12CE280F12C99
S11303D0B1E0EB1AF108CE14DF0411F03F5F01C065
S11303E0312F931201C0FFCF3081E380F480E30EFC
S11303F0F11CD701AC923081C32ED12CE280F12CB8
S1130400B1E0EB1AF108CE14DF0411F03F5F01C034
S1130410312F308378944617570721F64181308174
S11304204313FCCFF89441813081431304C0DC01B1
S11304303C9130623C93D1803081E32EF12C428197
S113044050E041505109E416F50611F03F5F01C038
S1130450322FD31201C0FFCF308143815481430F27
S1130460511DDA01BC923081E32EF12C428150E01F
S113047041505109E416F50611F03F5F01C0322FD7
S113048030837894418130814313FCCFF8944181C7
S11304903081431304C0DC013C9130623C93D18031
S11304A03081E32EF12C428150E041505109E41691
S11304B0F50611F03F5F01C0322FD31201C0FFCF08
S11304C0308143815481430F511DDA010C933081F3
S11304D0E32EF12C428150E041505109E416F50617
S11304E011F03F5F01C0322F3083789429CFF89404
S10504F0FFCF38
S11304F248454C4C4F20574F524C4400526563655B
S10B0502697665643A5B0000B0
S9030000FC
