S011000046696E616C44656D6F2E73726563A4
S113000057C0000070C000006EC000006CC000004B
S11300106AC0000068C0000066C0000064C0000040
S113002062C000005DC200005EC000005CC0000051
S11300305AC0000058C0000056C0000054C0000060
S113004052C0000050C000004EC000004CC0000070
S11300504AC0000048C0000046C0000044C0000080
S113006042C0000040C000003EC000003CC0000090
S11300703AC0000038C0000036C000008A037D0486
S11300807D04F503D9037D047D047D0410043C0440
S11300906804520426047D047D047D0472037D04F7
S11300A0BE037D047D047D04A20346037D045C033A
S11300B011241FBECFEFD8E0DEBFCDBF12E0A0E019
S11300C0B1E0E4E1FFE002C005900D92A63CB10767
S11300D0D9F723E0A6ECB2E001C01D92AE30B2071E
S11300E0E1F76FD215C78CCF1092C50083E38093DC
S11300F0C400A1ECB0E088E18C93E2ECF0E08EE087
S1130100808388E98C9386E080830895CF93DF937E
S1130110DC019C91992369F01196E0ECF0E0C6ECC7
S1130120D0E0292F908195FFFDCF28839D919111D7
S1130130F8CFE0ECF0E0808185FFFDCF8DE0809387
S1130140C600DF91CF910895E0ECF0E08081882330
S1130150ECF78091C6000895892B39F4672B11F4CC
S11301601BB8089588E08BB90895672B19F484E0CF
S11301708BB908958CE08BB90895892B39F4672BDA
S113018011F415B8089580E185B90895672B19F421
S113019088E085B9089588E185B908951092C90267
S11301A01092C8026091C6027091C70280E090E08C
S11301B0E4DF81E090E09093CD028093CC026091E3
S11301C0CA027091CB02C8CF08951092C702109250
S11301D0C60260E070E08091C8029091C902CDDF50
S11301E081E090E09093CB028093CA0261E070E0DA
S11301F08091CC029091CD02AFCF089581E090E040
S11302009093C9028093C8026091C6027091C7029C
S1130210B4DF1092CD021092CC026091CA027091A8
S1130220CB0280E090E098CF089581E090E0909335
S1130230C7028093C60261E070E08091C802909189
S1130240C9029BDF1092CB021092CA0260E070E0F8
S11302508091CC029091CD027FCF08951092C90273
S11302601092C8026091C6027091C70280E090E0CB
S113027084DF1092CD021092CC026091CA02709178
S1130280CB0280E090E068CF08951092C7021092EC
S1130290C60260E070E08091C8029091C9026DDFEF
S11302A01092CB021092CA0260E070E08091CC02FE
S11302B09091CD0251CF089584B1886184B98AB1F7
S11302C08C608AB98FEF84B98AB9089548EC9C018F
S11302D0429FC001439F900D11249C0136952795A0
S11302E0A5E7BAED2ED30024880F991F001C880FB0
S11302F0991F001C892F902D82599F4F909389003C
S113030080938800089548EC9C01429FC001439F5C
S1130310900D11249C0136952795A5E7BAED11D3CC
S11303200024880F991F001C880F991F001C892F17
S1130330902D82599F4F90938B0080938A0008954B
S1130340E0E8F0E08081826A8083E1E8F0E0808187
S11303508B61808383EC99E090938700809386007F
S11303608AB180638AB9089580E288B9089588B112
S113037018B80895CF93DF93181619060CF047C0E8
S113038020E030E0B8E4A4E0FCE0E8E078E160E1FB
S113039050E340E2B8B9C3ECD9E02197F1F700C0CB
S11303A00000A8B9C3ECD9E02197F1F700C0000020
S11303B0F8B9C3ECD9E02197F1F700C00000E8B91F
S11303C0C3ECD9E02197F1F700C0000078B9C3EC81
S11303D0D9E02197F1F700C0000068B9C3ECD9E077
S11303E02197F1F700C0000058B9C3ECD9E0219778
S11303F0F1F700C0000048B9C3ECD9E02197F1F748
S113040000C000002F5F3F4F8217930719F6DF915A
S1130410CF910895CF93DF93181619060CF047C0B7
S113042020E030E0B4E2A0E2F0E3E0E178E168E06B
S11304305CE044E0B8B9C3ECD9E02197F1F700C01F
S11304400000A8B9C3ECD9E02197F1F700C000007F
S1130450F8B9C3ECD9E02197F1F700C00000E8B97E
S1130460C3ECD9E02197F1F700C0000078B9C3ECE0
S1130470D9E02197F1F700C0000068B9C3ECD9E0D6
S11304802197F1F700C0000058B9C3ECD9E02197D7
S1130490F1F700C0000048B9C3ECD9E02197F1F7A7
S11304A000C000002F5F3F4F8217930719F6DF91BA
S11304B0CF91089589EF8093B300E0EBF0E0808161
S11304C082608083E0E7F0E0808182608083E1EBFA
S11304D0F0E080818360808385B3827085BB08955A
S11304E01F920F920FB60F9211248F939F93AF9385
S11304F0BF938091CE029091CF02A091D002B0918F
S1130500D1020196A11DB11D8093CE029093CF021A
S1130510A093D002B093D102BF91AF919F918F91DC
S11305200F900FBE0F901F90189580E090E036DE7C
S113053080E090E04ADE88E0E0E0F1E0A4E0B3E0AF
S113054001900D928A95E1F7089580E090E056DEDF
S113055080E090E06ADE88E0E8E0F1E0A4E0B3E067
S113056001900D928A95E1F7089580E090E016DEFF
S113057080E090E05ADE85E0E0E1F1E0A4E0B3E061
S113058001900D928A95E1F7089580E090E036DEBF
S113059080E090E01ADE86E0E5E1F1E0A4E0B3E07B
S11305A001900D928A95E1F708956FDE57DE88E099
S11305B0EBE1F1E0A4E0B3E001900D928A95E1F75C
S11305C00895CF93DF93CDB7DEB7C456D1090FB6E4
S11305D0F894DEBF0FBECDBF88E0EBE1F1E0DE01B1
S11305E0119601900D928A95E1F788E0E3E2F1E03B
S11305F0DE01D39601900D928A95E1F75BDF74DDFD
S11306005BDED3DF9DDE80E090E060DE80E090E0A2
S11306107ADE89E0EBE2F1E0A2EDB2E001900D9226
S11306208A95E1F782ED92E071DDA12CB12CC12C09
S1130630D12C7E0183E3E80EF11CFE0131964F01BB
S11306400F2EF3ED4F2EF1E05F2EF02D0F2EF4EB75
S11306502F2EF1E03F2EF02D0F2EF3E96F2EF2E056
S11306607F2EF02D71DD98E0E4E3F1E0D7010190F5
S11306700D929A95E1F790E0FC01E156F109EA3117
S1130680F10508F03AC1E25CFF4F55C16DDE88E028
S1130690E4E3F1E0D70101900D928A95E1F78FE050
S11306A0ECE3F1E0A2EDB2E001900D928A95E1F75E
S11306B082ED92E02BDD21C15ADE88E0E3E2F1E035
S11306C0D70101900D928A95E1F780E1EBE4F1E026
S11306D0A2EDB2E001900D928A95E1F782ED92E0ED
S11306E015DD0BC18AE090E045DE82E1EBE5F1E047
S11306F0D70101900D928A95E1F789E1EDE6F1E0E9
S1130700A2EDB2E001900D928A95E1F782ED92E0BC
S1130710FDDCF3C08AE090E07DDE83E1E6E8F1E011
S1130720D70101900D928A95E1F78BE1E9E9F1E0B7
S1130730A2EDB2E001900D928A95E1F782ED92E08C
S1130740E5DCDBC0F6E9CF16D1041CF485E0C80E65
S1130750D11CC601BBDDDF92CF923F922F9282ED76
S113076092E09F938F93FCD082ED92E0CFDC0F90C8
S11307700F900F900F900F900F90BFC01C141D048A
S11307801CF495E0C91AD108C601A0DDDF92CF920E
S11307903F922F9282ED92E09F938F93E1D082ED6E
S11307A092E0B4DC0F900F900F900F900F900F9089
S11307B0A4C0E6E9AE16B1041CF4F5E0AF0EB11C1A
S11307C0C501A1DDBF92AF925F924F9282ED92E09C
S11307D09F938F93C5D082ED92E098DC0F900F9099
S11307E00F900F900F900F9088C01A141B041CF4E4
S11307F085E0A81AB108C50186DDBF92AF925F9269
S11308004F9282ED92E09F938F93AAD082ED92E073
S11308107DDC0F900F900F900F900F900F906DC094
S113082084DE87E0E2EFF1E0D40101900D928A9535
S1130830E1F788E1E9EFF1E0A2EDB2E001900D9279
S11308408A95E1F782ED92E061DC57C07EDE8AE0B2
S1130850E1E1F2E0D40101900D928A95E1F789E19A
S1130860EBE1F2E0A2EDB2E001900D928A95E1F79E
S113087082ED92E04BDC41C088DE8EE0E4E3F2E0FE
S1130880D40101900D928A95E1F78CE1E2E4F2E063
S1130890A2EDB2E001900D928A95E1F782ED92E02B
S11308A035DC2BC062DE8DE0EEE5F2E0D401019090
S11308B00D928A95E1F78BE1EBE6F2E0A2EDB2E06E
S11308C001900D928A95E1F782ED92E01FDC15C04C
S11308D06CDE88E0EBE1F1E0D40101900D928A95A1
S11308E0E1F78DE0E6E8F2E0A2EDB2E001900D92CE
S11308F08A95E1F782ED92E009DCFF92EF929F92F4
S11309008F92BF92AF92DF92CF927F926F9202ED5D
S113091012E01F930F9324D0C801F8DB8AE090E023
S1130920F80191838083C801F1DB0FB6F894DEBF30
S11309300FBECDBF97CEEE0FFF1F0590F491E02DB3
S11309400994A29FB001B39FC001A39F700D811DA4
S11309501124911DB29F700D811D1124911D0895C4
S1130960AEE0B0E0E5EBF4E0AAC20D891E8986E0B2
S11309708C831A8309838FEF9FE79E838D83AE0157
S1130980475E5F4F6F89788DCE01019608D0EF8165
S1130990F885E00FF11F10822E96E4E0ACC2ABE0C4
S11309A0B0E0E4EDF4E07DC26C017B018A01FC015E
S11309B017821682838181FFBFC1CE0101963C015B
S11309C0F6019381F70193FD859193FF81917F0156
S11309D0882309F4ADC1853239F493FD859193FFE1
S11309E081917F01853221F4B60190E0C0D1E8CF36
S11309F0912C212C312CFFE1F315D8F08B3279F0B6
S1130A0038F4803279F08332A1F4232D20611DC0A3
S1130A108D3261F0803369F4232D216016C0832D5B
S1130A208260382EE32DE4603E2E2AC0F32DF86058
S1130A301DC037FC2DC020ED280F2A3040F08E3227
S1130A40B9F436FC75C1232D2064322E19C036FE4C
S1130A5006C08AE0989E200D1124922E11C0EAE06F
S1130A602E9E200D1124222EF32DF0623F2E08C05D
S1130A708C3621F4832D8068382E02C0883641F4E8
S1130A80F70193FD859193FF81917F018111B3CF8C
S1130A90982F9F7D9554933028F40C5F1F4F9FE34C
S1130AA099830DC0833631F0833771F0833509F0B3
S1130AB055C020C0F801808189830E5F1F4F8824B0
S1130AC08394912C530112C02801F2E04F0E511C63
S1130AD0F801A080B18036FE03C0692D70E002C029
S1130AE06FEF7FEFC50138D14C018201F32DFF7701
S1130AF03F2E15C0280122E0420E511CF801A080AF
S1130B00B18036FE03C0692D70E002C06FEF7FEF45
S1130B10C50117D14C01F32DF0683F2E820133FC3F
S1130B2019C0822D90E088169906A0F4B60180E2DF
S1130B3090E01DD12A94F5CFF50137FC859137FE5D
S1130B4081915F01B60190E012D121102A9421E035
S1130B50821A91088114910479F7E1C0843611F066
S1130B60893639F5F80137FE07C0608171818281C9
S1130B7093810C5F1F4F08C060817181072E000CA8
S1130B80880B990B0E5F1F4FF32DFF763F2E97FFB7
S1130B9009C090958095709561957F4F8F4F9F4FB9
S1130BA0F0683F2E2AE030E0A3011DD1882E86187C
S1130BB044C0853731F4232D2F7EB22E2AE030E055
S1130BC025C0932D997FB92E8F36C1F018F488353E
S1130BD079F0AEC0803719F0883721F0A9C0E92F29
S1130BE0E061BE2EB4FE0DC0FB2DF460BF2E09C023
S1130BF034FE0AC0292F2660B22E06C028E030E059
S1130C0005C020E130E002C020E132E0F801B7FE87
S1130C1007C060817181828193810C5F1F4F06C080
S1130C206081718180E090E00E5F1F4FA301DBD0F3
S1130C30882E8618FB2DFF773F2E36FE0DC0232D00
S1130C402E7FA22E891458F434FE0BC032FC09C046
S1130C50832D8E7EA82E05C0B82CA32C03C0B82CDF
S1130C6001C0B92CA4FE0FC0FE01E80DF11D808166
S1130C70803321F49A2D997EA92E09C0A2FE06C0C4
S1130C80B394B39404C08A2D867809F0B394A3FC7A
S1130C9010C0A0FE06C0B21480F4280C922C9B183D
S1130CA00DC0B21458F4B60180E290E060D0B39461
S1130CB0F8CFB21418F42B1802C0982C212CA4FEDF
S1130CC00FC0B60180E390E052D0A2FE16C0A1FC92
S1130CD003C088E790E002C088E590E0B6010CC04C
S1130CE08A2D867851F0A1FE02C08BE201C080E219
S1130CF0A7FC8DE2B60190E03AD0891430F4B60135
S1130D0080E390E034D09A94F8CF8A94F301E80D0C
S1130D10F11D8081B60190E02AD08110F6CF222007
S1130D2009F44ECEB60180E290E021D02A94F7CFA8
S1130D30F6018681978102C08FEF9FEF2B96E2E147
S1130D40CCC0FC010590615070400110D8F780952B
S1130D5090958E0F9F1F0895FC0161507040019083
S1130D600110D8F7809590958E0F9F1F08950F93CB
S1130D701F93CF93DF93FB01238121FD03C08FEFEA
S1130D809FEF2CC022FF16C04681578124813581F4
S1130D904217530744F4A081B1819D012F5F3F4F57
S1130DA0318320838C93268137812F5F3F4F378394
S1130DB0268314C08B01EC01FB010084F185E02D36
S1130DC00995892BE1F6D80116968D919C91179778
S1130DD0019617969C938E931697CE01DF91CF912F
S1130DE01F910F910895FA01AA27283051F120315B
S1130DF081F1E8946F936E7F6E5F7F4F8F4F9F4FAB
S1130E00AF4FB1E03ED0B4E03CD0670F781F891FEC
S1130E109A1FA11D680F791F8A1F911DA11D6A0FBA
S1130E20711D811D911DA11D20D009F468943F916D
S1130E302AE0269F11243019305D3193DEF6CF016C
S1130E400895462F4770405D4193B3E00FD0C9F732
S1130E50F6CF462F4F70405D4A3318F0495D31FD9F
S1130E604052419302D0A9F7EACFB4E0A6959795F2
S1130E70879577956795BA95C9F7009761057105C8
S1130E8008959B01AC010A2E069457954795379512
S1130E902795BA95C9F7620F731F841F951FA01D6C
S1130EA008952F923F924F925F926F927F928F920A
S1130EB09F92AF92BF92CF92DF92EF92FF920F93E5
S1130EC01F93CF93DF93CDB7DEB7CA1BDB0B0FB6EF
S1130ED0F894DEBF0FBECDBF09942A8839884888AC
S1130EE05F846E847D848C849B84AA84B984C88442
S1130EF0DF80EE80FD800C811B81AA81B981CE0F39
S1130F00D11D0FB6F894DEBF0FBECDBFED0108951D
S1070F10F894FFCF7F
S1130F14466F727761726400526576657273650018
S1130F244C6566740052696768740053746F70701A
S1130F3465640052656C6178656400526561647926
S1130F4421200A00486F6C64696E670057696E63F8
S1130F546820686F6C64696E670A0057696E636819
S1130F642072656C65617365640A005374657070FE
S1130F74696E6720666F7277617264730057696E75
S1130F846368206D6F766564206F6E652073746585
S1130F94702075700A005374657070696E672062FE
S1130FA461636B77617264730057696E6368206D63
S1130FB46F766564206F6E65207374657020646F4A
S1130FC4776E0A00536572766F2031206D6F7665F3
S1130FD46420746F20706F736974696F6E20256464
S1130FE42A0A00536572766F2032206D6F76656429
S1130FF420746F20706F736974696F6E2025642A7E
S11310040A006D6F76696E6700436172206973200C
S11310146D6F76696E6720666F7277617264730AA6
S113102400726576657273696E6700436172206944
S113103473206D6F76696E67206261636B7761728A
S113104464730A007475726E696E672072696768E6
S11310547400436172206973206D6F76696E672032
S1131064746F207468652072696768740A00747503
S1131074726E696E67206C656674004361722069E0
S113108473206D6F76696E6720746F2074686520B1
S11310946C6566740A004361722073746F707065C2
S11310A4640A005379735374613A095331706F734A
S11310B43D25642C205332706F733D25640D0A5210
S11310C46F7665723A0925730D0A57696E63683A37
S10910D40925730A000067
S9030000FC
