:10000000C7C00000E1C00000DFC00000DDC000008C
:10001000DBC00000D9C00000D7C00000D5C0000080
:10002000D3C00000D1C00000CFC00000CDC0000090
:10003000CBC00000C9C00000C7C00000C5C00000A0
:10004000C3C00000C1C0000008C10000BEC0000065
:10005000BBC00000B9C00000B7C00000B5C00000C0
:10006000B3C00000B1C0000084049304B305B3051D
:10007000B305B305B305B305B305B305B305B305C0
:10008000B305B305B305B305B305B305B305B305B0
:10009000B305B305B305B305B305CA04B305E80456
:1000A000B305B305B305B305B305B305B305B30590
:1000B000B305B305B305B305B305B305B305B30580
:1000C000B305B305B305B305F003B305B305B30535
:1000D000B30520046304B004060578055B059605A6
:1000E0003005BD04B305B305E203FE03B3054104C7
:1000F000B305B305B305C403A304A30384049304A5
:10010000B305B305B305B305B305B305B305B3052F
:10011000B305B305B305B305B305B305B305B3051F
:10012000B305B305B305B305B305B305B3052E0693
:10013000B305E804B305B305B305B305B305B305CB
:10014000B305B305B305B305B305B305B305B305EF
:10015000B305B305B305B305B305B305F003B305A4
:10016000B305B305B30520046304B00406057805A0
:100170005B0596053005BD04B305B305E203FE0338
:10018000B3054104B305B305B305C403A304A30336
:1001900011241FBECFEFD8E0DEBFCDBF13E0A0E03B
:1001A000B1E0E0E5F2E102C005900D92AC35B10797
:1001B000D9F724E0ACE5B3E001C01D92AE32B2073E
:1001C000E1F740D20C9426091BCF1F920F920FB675
:1001D0000F9211242F933F934F935F938F939F938D
:1001E000AF93BF93EF93FF93E9E2F4E091818081B5
:1001F0009817F9F091818081981301C0FFCFE9E24F
:10020000F4E08181A381B481A80FB11D9C9181810B
:10021000482F50E0228130E0215031094217530726
:1002200011F08F5F01C080E080932A049093C60094
:1002300005C0E1ECF0E080818F7D8083FF91EF913C
:10024000BF91AF919F918F915F914F913F912F916E
:100250000F900FBE0F901F9018951F920F920FB620
:100260000F9211242F933F934F935F936F937F933C
:100270008F939F93AF93BF93EF93FF939091C6009B
:10028000E4E2F4E041818081682F70E0228130E077
:10029000215031096217730711F08F5F01C080E0B0
:1002A000481301C0FFCFE4E2F4E08081A381B48170
:1002B000A80FB11D9C938081482F50E0228130E02F
:1002C000215031094217530711F08F5F01C080E0C0
:1002D00080932404FF91EF91BF91AF919F918F91F3
:1002E0007F916F915F914F913F912F910F900FBE32
:1002F0000F901F901895CF93DF93CDB7DEB7699716
:100300000FB6F894DEBF0FBECDBF1092C5008CE0D3
:100310008093C400E0ECF0E080818260808388E913
:100320008093C10086E08093C2001D8A1E8A84E605
:100330008F8B2CE533E0398F288F95E0FE01759681
:10034000DE011B9601900D929A95E1F795E0FE0172
:100350003B96DE01509601900D929A95E1F795E05B
:10036000FE017096A9E2B4E001900D929A95E1F732
:100370001D8A1E8A8F8B80EC93E0998F888F85E091
:10038000FE017596DE01119601900D928A95E1F7B6
:1003900085E0FE013196DE01169601900D928A9558
:1003A000E1F785E0FE013696A4E2B4E001900D92FB
:1003B0008A95E1F769960FB6F894DEBF0FBECDBF00
:1003C000DF91CF9108950F931F93CF93DF93AC01EB
:1003D00010E0E9E2F4E061EC70E000E037C0218178
:1003E00090812913FCCFC40FD51F9881F8942181E7
:1003F0008081281304C0DB018C9180628C93A181E1
:100400008081C82FD0E0228130E021503109C2170D
:10041000D30711F08F5F01C0802FA81301C0FFCF59
:100420008081A381B481A80FB11D9C939081A92FD5
:10043000B0E0228130E021503109A217B30711F05A
:100440009F5F01C0902F908378941F5FC12FD0E0F1
:10045000DA010D900020E9F71197A41BB50BCA171C
:10046000DB0708F4BCCFE9E2F4E0918180819813C6
:10047000FCCFF894E9E2F4E091818081981305C003
:10048000E1ECF0E0808180628083E9E2F4E0918138
:100490008081482F50E0228130E0215031094217FD
:1004A000530711F08F5F01C080E0981301C0FFCFA8
:1004B000E9E2F4E08081A381B481A80FB11D8DE051
:1004C0008C938081482F50E0228130E02150310907
:1004D0004217530711F08F5F01C080E08093290419
:1004E0007894DF91CF911F910F910895E4E2F4E0A9
:1004F000918180819817E9F091818081981301C0E2
:10050000FFCFE4E2F4E08181A381B481A80FB11DA3
:100510008C919181492F50E0228130E021503109A6
:100520004217530711F09F5F01C090E0909325049C
:10053000089580E0089580E091E045CF089589E036
:1005400091E041CF08950F931F93CF93DF93CDB7E1
:10055000DEB7E2970FB6F894DEBF0FBECDBF7F9334
:100560006F9384E191E09F938F938E010F5F1F4FF4
:100570001F930F93A5D3C80126DF0F900F900F9004
:100580000F900F900F90E2960FB6F894DEBF0FBE5B
:10059000CDBFDF91CF911F910F9108950F931F93BE
:1005A000CF93DF93CDB7DEB7E2970FB6F894DEBFF7
:1005B0000FBECDBF4F3F510509F05CF441308FEFC6
:1005C000580754F0CA010996439740F440E050E0C0
:1005D00005C04FEF50E002C041E05FEF5F934F93E3
:1005E00085E391E09F938F938E010F5F1F4F1F93C1
:1005F0000F9366D3C801E7DE0F900F900F900F9016
:100600000F900F90E2960FB6F894DEBF0FBECDBFED
:10061000DF91CF911F910F9108954AB121E030E011
:10062000F90102C0EE0FFF1F8A95E2F7CF01842B7C
:100630008AB98AB102C0220F331F6A95E2F7282BCC
:100640002AB90895CF93DF93CDB7DEB7E6970FB6FB
:10065000F894DEBF0FBECDBF66E070E083E090E0AF
:10066000DCDF65E070E084E090E0D7DF84B580688F
:1006700084BD84B5806284BD84B5836084BD85B546
:10068000826085BDF89437DE78946AE570E081E099
:1006900090E059DF60E070E082E090E054DF60E0DD
:1006A00070E083E090E04FDF80E090E08DAB9EABA8
:1006B0008BAB9CABA12CB12C10E00F2EFAE54F2E8A
:1006C000512CF02DC12CD12CE12CF12C312C212CD2
:1006D0000F2EFBE18F2EF3E09F2EF02D360106DF6B
:1006E000082F1A3619F48A3689F402C21C3619F416
:1006F0008C3661F41BC21A3419F48A3439F44AC1B5
:100700001C3409F0BAC28C3409F4C5C240E050E090
:1007100066E070E085E090E041DF40E050E068E0B6
:1007200070E087E090E03ADF802F002E000C990BFC
:10073000AA0BBB0BFC01F197EA34F10508F013C2D8
:10074000EC5CFF4FB7C2141415041CF485E0481A82
:100750005108B20181E090E0F6DE5F924F92ACE585
:10076000B1E0BF93AF93A1E0B0E0AC0FBD1FBF936A
:10077000AF93A6D2CE01019626DE0F900F900F9078
:100780000F900F900F901AC2B4EB4B1651041CF44B
:1007900085E0480E511C5F924F92ACE5B1E0BF93EB
:1007A000AF93A1E0B0E0AC0FBD1FBF93AF9388D271
:1007B000CE01019608DE0F900F900F900F900F90D2
:1007C0000F90FCC1B8DE89E1EAE7F1E0DE011196A5
:1007D00001900D928A95E1F7CE010196F4DDEEC10C
:1007E000AEDE8BE1E3E9F1E0DE01119601900D92BE
:1007F0008A95E1F7CE010196E6DDE0C1B4EBEB1698
:10080000F1041CF485E0E80EF11CB70182E090E0F1
:100810009ADEFF92EF92AEEAB1E0BF93AF93A1E010
:10082000B0E0AC0FBD1FBF93AF934AD2CE0101968B
:10083000CADD0F900F900F900F900F900F90BEC1D8
:100840001E141F041CF4B5E0EB1AF108B70182E096
:1008500090E079DEFF92EF92AEEAB1E0BF93AF9302
:10086000A1E0B0E0AC0FBD1FBF93AF9329D2CE0182
:100870000196A9DD0F900F900F900F900F900F90A1
:100880009DC1B4EB6B1671041CF485E0680E711CFD
:10089000B30183E090E057DE7F926F92A0EDB1E06C
:1008A000BF93AF93A1E0B0E0AC0FBD1FBF93AF9378
:1008B00007D2CE01019687DD0F900F900F900F9019
:1008C0000F900F907BC1161417041CF4B5E06B1A3F
:1008D0007108B30183E090E036DE7F926F92A0ED65
:1008E000B1E0BF93AF93A1E0B0E0AC0FBD1FBF93E9
:1008F000AF93E6D1CE01019666DD0F900F900F9079
:100900000F900F900F905AC18CE0E2EFF1E0DE0102
:10091000119601900D928A95E1F7CE01019653DD73
:10092000312C212C4BC18BE0EEEFF1E0DE01119672
:1009300001900D928A95E1F7CE01019644DD3324B2
:100940003394212C3BC18CE1E9E0F2E0DE01119609
:1009500001900D928A95E1F7CE01019634DD09C12F
:1009600084E2E5E2F2E0DE01119601900D928A95B3
:10097000E1F7CE01019627DDFCC08CE1E9E4F2E06D
:10098000DE01119601900D928A95E1F7CE01019654
:100990001ADDEFC040E050E066E070E085E090E0F6
:1009A000FDDD40E050E068E070E087E090E0F6DDDB
:1009B0001A3409F403C18BE1E5E6F2E0DE01119699
:1009C00001900D928A95E1F7CE010196FCDCF6C00C
:1009D00040E050E066E070E085E090E0DFDD40E080
:1009E00050E068E070E087E090E0D8DD1C3409F466
:1009F000E5C084E1E0E8F2E0DE01119601900D929D
:100A00008A95E1F7CE010196DEDCD8C0C12CD12C4D
:100A1000A60166E070E085E090E0C0DDA60168E038
:100A200070E087E090E0BADDBCA9BF938BA98F93FB
:100A3000A4E9B2E0BF93AF93A1E0B0E0AC0FBD1F5B
:100A4000BF93AF933DD1CE010196BDDC0F900F90C7
:100A50000F900F900F900F90AA24A394B12CAEC0CA
:100A6000C12CD12CA60166E070E085E090E096DD17
:100A7000A60168E070E087E090E090DDBEA9BF933A
:100A80008DA98F93AFEBB2E0BF93AF93A1E0B0E03D
:100A9000AC0FBD1FBF93AF9313D1CE01019693DC72
:100AA0000F900F900F900F900F900F906894AA24C2
:100AB000A1F8B12C83C0C12CD12CA60166E070E056
:100AC00085E090E06BDDA60168E070E087E090E0F3
:100AD00065DDEBEEF2E0DE0111968DE001900D9206
:100AE0008A95E1F7CE0101966EDCA12CB12C66C08F
:100AF00040E050E066E070E085E090E04FDD40E0EF
:100B000050E068E070E087E090E048DD1A3609F4D4
:100B100055C0E8EFF2E0DE01119681E101900D92FF
:100B20008A95E1F7CE0101964EDC48C040E050E0E6
:100B300066E070E085E090E031DD40E050E068E0A4
:100B400070E087E090E02ADD1C36C1F1E9E0F3E0D7
:100B5000DE01119682E101900D928A95E1F7CE01B6
:100B6000019631DC2BC0093721F0083611F00E3622
:100B700029F5B1E0AB16B10479F4C12CD12CA60152
:100B800066E070E085E090E009DDA60168E070E0D5
:100B900087E090E003DD12C082E0A816B10471F492
:100BA000C12CD12CA60166E070E085E090E0F6DC77
:100BB000A60168E070E087E090E0F0DC0A3409F418
:100BC00041C00C3409F441C00A3609F441C00C3666
:100BD00009F441C02F923F927F926F92FF92EF9261
:100BE0005F924F921F921F921F921F929F928F921D
:100BF000A1E0B0E0AC0FBD1FBF93AF9361D00FB6C3
:100C0000F894DEBF0FBECDBF102F69CD2F923F925B
:100C10007F926F92FF92EF925F924F921F921F927C
:100C20001F921F929F928F92A1E0B0E0AC0FBD1F68
:100C3000BF93AF9345D00FB6F894DEBF0FBECDBFC4
:100C4000102F4DCD1A3411F74ACD1C34F9F647CD8B
:100C50001A36E1F644CD1C36C9F641CD40E050E0ED
:100C600066E070E085E090E099DC40E050E068E00C
:100C700070E087E090E092DC9ECE082E000C990B8D
:100C8000AA0BBB0BFC01F197EA34F10508F06BCF1E
:100C9000E258FF4F0FC040E050E066E070E085E0B2
:100CA00090E07CDC40E050E068E070E087E090E0BD
:100CB00075DC84CFEE0FFF1F0590F491E02D0994B1
:100CC000AEE0B0E0E5E6F6E098C20D891E8986E068
:100CD0008C831A8309838FEF9FE79E838D83AE01F8
:100CE000475E5F4F6F89788DCE01019609D02F81C5
:100CF0003885F801E20FF31F10822E96E4E099C2C6
:100D0000ACE0B0E0E5E8F6E06AC27C016B018A0184
:100D1000FC0117821682838181FFB0C1CE0101964A
:100D20004C01F7019381F60193FD859193FF819129
:100D30006F01882309F49EC1853239F493FD8591B2
:100D400093FF81916F01853221F4B70190E0B1D119
:100D5000E8CF512C312C20E02032A0F48B3269F006
:100D600030F4803259F0833269F420612CC08D3226
:100D700039F0803339F4216026C02260246023C01A
:100D8000286021C027FD27C030ED380F3A3078F4B5
:100D900026FF06C0FAE05F9E300D1124532E13C0CB
:100DA0008AE0389E300D1124332E20620CC08E3222
:100DB00021F426FD5FC1206406C08C3611F4206842
:100DC00002C0883641F4F60193FD859193FF81912D
:100DD0006F018111C1CF982F9F7D9554933028F4D6
:100DE0000C5F1F4FFFE3F9830DC0833631F083376B
:100DF00071F0833509F057C021C0F80180818983E3
:100E00000E5F1F4F44244394512C540114C03801E9
:100E1000F2E06F0E711CF801A080B18026FF03C0C4
:100E2000652D70E002C06FEF7FEFC5012C8736D1D2
:100E30002C0183012C852F77222E16C03801F2E079
:100E40006F0E711CF801A080B18026FF03C0652DD4
:100E500070E002C06FEF7FEFC5012C8714D12C0129
:100E60002C852068222E830123FC19C0832D90E05D
:100E700048165906A0F4B70180E290E01AD13A94DE
:100E8000F5CFF50127FC859127FE81915F01B70120
:100E900090E00FD131103A94F1E04F1A510841140B
:100EA000510479F7DEC0843611F0893631F5F80146
:100EB00027FF07C060817181828193810C5F1F4F82
:100EC00008C060817181072E000C880B990B0E5FA2
:100ED0001F4F2F76722E97FF09C0909580957095C1
:100EE00061957F4F8F4F9F4F2068722E2AE030E030
:100EF000A40117D1A82EA81843C0853729F42F7E46
:100F0000B22E2AE030E025C0F22FF97FBF2E8F36B7
:100F1000C1F018F4883579F0ADC0803719F0883702
:100F200021F0A8C02F2F2061B22EB4FE0DC08B2D52
:100F30008460B82E09C024FF0AC09F2F9660B92E86
:100F400006C028E030E005C020E130E002C020E12A
:100F500032E0F801B7FE07C0608171818281938120
:100F60000C5F1F4F06C06081718180E090E00E5FD2
:100F70001F4FA401D6D0A82EA818FB2DFF777F2ED7
:100F800076FE0BC0372D3E7FA51450F474FE0AC0C8
:100F900072FC08C0372D3E7E05C0BA2C372D03C029
:100FA000BA2C01C0B52C34FF0DC0FE01EA0DF11DB5
:100FB0008081803311F4397E09C032FF06C0B394BA
:100FC000B39404C0832F867809F0B39433FD12C024
:100FD00030FF06C05A2CB31418F4530C5B18B32C12
:100FE000B31460F4B70180E290E03C8762D0B39420
:100FF0003C85F6CFB31410F43B1801C0312C34FFFC
:1010000011C0B70180E390E03C8753D03C8532FFAC
:1010100016C031FD03C088E790E002C088E590E08B
:10102000B7010CC0832F867851F031FF02C08BE2EC
:1010300001C080E237FD8DE2B70190E03AD0A514FF
:1010400030F4B70180E390E034D05A94F8CFAA94FA
:10105000F401EA0DF11D8081B70190E02AD0A110C2
:10106000F6CF332009F45DCEB70180E290E021D0C5
:101070003A94F7CFF7018681978102C08FEF9FEFF7
:101080002C96E2E1C8C0FC0105906150704001104F
:10109000D8F7809590958E0F9F1F0895FC016150A1
:1010A000704001900110D8F7809590958E0F9F1F8A
:1010B00008950F931F93CF93DF93FB01238121FDAD
:1010C00003C08FEF9FEF28C022FF16C046815781D3
:1010D000248135814217530744F4A081B1819D01D9
:1010E0002F5F3F4F318320838C93268137812F5F81
:1010F0003F4F3783268310C0EB01092F182F008440
:10110000F185E02D0995892BE1F68E819F8101966D
:101110009F838E83812F902FDF91CF911F910F910D
:101120000895FA01AA27283051F1203181F1E8947D
:101130006F936E7F6E5F7F4F8F4F9F4FAF4FB1E0CA
:101140003ED0B4E03CD0670F781F891F9A1FA11DC5
:10115000680F791F8A1F911DA11D6A0F711D811DC6
:10116000911DA11D20D009F468943F912AE0269F8B
:1011700011243019305D3193DEF6CF010895462FEA
:101180004770405D4193B3E00FD0C9F7F6CF462FCB
:101190004F70405D4A3318F0495D31FD4052419334
:1011A00002D0A9F7EACFB4E0A695979587957795F1
:1011B0006795BA95C9F700976105710508959B0178
:1011C000AC010A2E06945795479537952795BA9501
:1011D000C9F7620F731F841F951FA01D08952F92DA
:1011E0003F924F925F926F927F928F929F92AF92B7
:1011F000BF92CF92DF92EF92FF920F931F93CF9304
:10120000DF93CDB7DEB7CA1BDB0B0FB6F894DEBF9A
:101210000FBECDBF09942A88398848885F846E84C0
:101220007D848C849B84AA84B984C884DF80EE800A
:10123000FD800C811B81AA81B981CE0FD11D0FB613
:10124000F894DEBF0FBECDBFED010895F894FFCF37
:10125000537465702075700A005374657020646F54
:10126000776E0A00536572766F206973206D6F7612
:10127000696E6720746F20706F736974696F6E2078
:1012800025642A0A004443206D6F746F72206973CD
:10129000206D6F76696E6720776974682064757455
:1012A00079206379636C652025640A0043616D656C
:1012B0007261206D6F76656420746F20706F736942
:1012C00074696F6E2025642A0A0057696E6368206E
:1012D0006D6F766564206F6E652073746570207520
:1012E000700A0057696E6368206D6F766564206FC1
:1012F0006E65207374657020646F776E0A00557098
:1013000070657220636C6177206D6F766564207400
:101310006F20706F736974696F6E2025642A0A00EC
:101320004C6F77657220636C6177206D6F766564B2
:1013300020746F20706F736974696F6E2025642A42
:101340000A004C69676874206F6666200A004C6961
:10135000676874206F6E200A004472697665206D9C
:101360006F6465207761732073657420746F2066E5
:101370006173740A004472697665206D6F6465203C
:101380007761732073657420746F206D656469756F
:101390006D2073706565640A004472697665206D1E
:1013A0006F6465207761732073657420746F207398
:1013B0006C6F770A00436F756E746572636C6F6350
:1013C0006B77697365207370696E6E696E670A006A
:1013D000436C6F636B77697365207370696E6E69B8
:1013E0006E670A00436172206D6F76657320666FC9
:1013F00072776172647320776974682074686520FD
:1014000064757479206379636C652025640A0043F0
:101410006172206D6F766573206261636B776172B4
:1014200064732077697468207468652064757479C2
:10143000206379636C652025640A00436172206231
:101440007265616B73200A00436172207475726E5D
:1014500073206C656674200A004361722074757293
:101460006E73207269676874200A0053797353742D
:10147000613A204475523D25642044754C3D2564F5
:101480002043616D506F733D2564205570436C504F
:101490006F733D2564204C6F436C506F733D256422
:0C14A000204C696768743D2564200A0038
:00000001FF
