:100000000C943E000C9450000C9450000C94500042
:100010000C9450000C9450000C9450000C94500020
:100020000C9450000C9450000C9450000C94500010
:100030000C9450000C9450000C9450000C94500000
:100040000C9450000C9450000C9450000C945000F0
:100050000C9450000C9450000C9450000C945000E0
:100060000C9450000C9450000C9450000C945000D0
:100070000C9450000C9450000C94500011241FBE9E
:10008000CFEFD8E0DEBFCDBF21E0A0E0B1E001C0FE
:100090001D92A030B207E1F70E945C000C94EC00C6
:1000A0000C94000081EF84BD8AE085BD17BC18BCAC
:1000B00084B1886184B9089511B88FEF8AB90E941C
:1000C00052000E94880081E090E00E94700081E070
:1000D00090E00E947C0089E190E00E949C00F3CFB8
:1000E0002DE0AC01249FC001259F900D1124909319
:1000F00089008093880008952DE0AC01249FC00101
:10010000259F900D112490938B0080938A00089571
:10011000E0E8F0E08081826A8083E1E8F0E08081BD
:10012000896180838FE19EE49093870080938600AD
:100130008AB180638AB90895CF93DF9318161906A0
:100140000CF047C020E030E0B4E2A0E2F0E3E0E1F0
:1001500078E168E05CE044E0B8B9C9EFD0E021970D
:10016000F1F700C00000A8B9C9EFD0E02197F1F77E
:1001700000C00000F8B9C9EFD0E02197F1F700C046
:100180000000E8B9C9EFD0E02197F1F700C0000006
:1001900078B9C9EFD0E02197F1F700C0000068B945
:1001A000C9EFD0E02197F1F700C0000058B9C9EFBE
:1001B000D0E02197F1F700C0000048B9C9EFD0E0C6
:1001C0002197F1F700C000002F5F3F4F8217930780
:0C01D00019F6DF91CF910895F894FFCF4D
:00000001FF
