S013000053746570706572333234412E7372656354
S11300000C943E000C9450000C9450000C9450003E
S11300100C9450000C9450000C9450000C9450001C
S11300200C9450000C94A6000C9450000C945000B6
S11300300C9450000C9450000C9450000C945000FC
S11300400C9450000C9450000C9450000C945000EC
S11300500C9450000C9450000C9450000C945000DC
S11300600C9450000C9450000C9450000C945000CC
S11300700C9450000C9450000C94500011241FBE9A
S1130080CFEFD8E0DEBFCDBF21E0A0E0B1E001C0FA
S11300901D92A430B207E1F70E9462000C94CB00D9
S11300A00C94000017BC88BD089587BD18BC089542
S11300B081EF84BD8AE085BD17BC18BC84B188611A
S11300C084B9089511B88FEF8AB90E9458000E942C
S11300D0920081E090E00E947A0081E090E00E942A
S11300E0860080E090E00E94550080E090E00E944D
S11300F05200EFCF2DE0AC01249FC001259F900D4D
S11301001124909389008093880008952DE0AC0118
S1130110249FC001259F900D112490938B00809300
S11301208A000895E0E8F0E08081826A8083E1E853
S1130130F0E08081896180838FE19EE49093870061
S1130140809386008AB180638AB908951F920F92C2
S11301500FB60F9211248F939F93AF93BF93809107
S1130160000190910101A0910201B0910301019657
S1130170A11DB11D8093000190930101A093020180
S1130180B0930301BF91AF919F918F910F900FBED8
S10D01900F901F901895F894FFCF0C
S9030000FC
