:100000005CC0000075C0000073C0000071C000003B
:100010006FC000006DC000006BC0000069C0000030
:1000200067C0000065C0000063C0000061C0000040
:100030005FC000005DC000005BC0000059C0000050
:100040001AC3000055C0000053C0000051C000009A
:1000500085C000004DC000004BC0000049C000003A
:1000600047C0000045C0000043C0000041C0000080
:100070003FC000003DC000003BC000007C027F028A
:100080008202850288028B028E02910249040905D0
:100090000905A9048D04090509050905C404E0043E
:1000A000FC04EE04D2040905090509053904090513
:1000B0007304090509050905590411241FBECFEF72
:1000C000D8E0DEBFCDBF12E0A0E0B1E0ECE8F0E1A7
:1000D00002C005900D92AA33B107D9F723E0AAE335
:1000E000B2E001C01D92A735B207E1F77FD3CCC7BC
:1000F00087CF1092C50083E38093C400A1ECB0E0E9
:1001000088E18C93E2ECF0E08EE0808388E98C93C8
:1001100086E080830895CF93DF93DC019C9199233F
:1001200069F01196E0ECF0E0C6ECD0E0292F908168
:1001300095FFFDCF28839D919111F8CFE0ECF0E081
:10014000808185FFFDCF8DE08093C600DF91CF9148
:10015000089580914A0310924A0308951F920F92C6
:100160000FB60F9211248F938091C60080934A039B
:100170008F910F900FBE0F901F901895892B39F417
:10018000672B11F41BB8089588E08BB90895672B8D
:1001900019F484E08BB908958CE08BB90895892B0C
:1001A00039F4672B11F415B8089580E185B90895E5
:1001B000672B19F488E085B9089588E185B9089519
:1001C00010923D0210923C0260913A0270913B0203
:1001D00080E090E0E4DF81E090E090934102809342
:1001E000400260913E0270913F02C8CF0895109284
:1001F0003B0210923A0260E070E080913C029091E4
:100200003D02CDDF81E090E090933F0280933E027B
:1002100061E070E08091400290914102AFCF08957B
:1002200081E090E090933D0280933C0260913A021D
:1002300070913B02B4DF1092410210924002609133
:100240003E0270913F0280E090E098CF089581E0F7
:1002500090E090933B0280933A0261E070E08091DD
:100260003C0290913D029BDF10923F0210923E02B1
:1002700060E070E080914002909141027FCF08954C
:1002800010923D0210923C0260913A0270913B0242
:1002900080E090E084DF1092410210924002609171
:1002A0003E0270913F0280E090E068CF0895109286
:1002B0003B0210923A0260E070E080913C02909123
:1002C0003D026DDF10923F0210923E0260E070E04E
:1002D000809140029091410251CF089584B188618C
:1002E00084B98AB18C608AB98FEF84B98AB90895CC
:1002F0008DE790E0909389008093880008958DE7C2
:1003000090E090938B0080938A000895E0E8F0E0FD
:100310008081826A8083E1E8F0E080818B61808364
:1003200083EC99E090938700809386008AB1806384
:100330008AB9089587B18C6387B910924C031092E3
:100340004B0310924E0310924D0310924F031092E4
:1003500050031092510310925203109253031092C3
:10036000540310925503109256030895AF92BF9212
:10037000CF92DF92EF92FF920F931F93392F40910C
:100380004D0350914E03452BB1F441E050E05093A2
:100390004E0340934D0310924F031092500310925E
:1003A000510310925203109253031092540310926F
:1003B000550310925603A0904F03B0905003C09085
:1003C0005103D0905203E0905303F09054030091F6
:1003D000550310915603282F932F990F990B492FEE
:1003E000592F692F792F892F56D320934F0330939C
:1003F00050034093510350935203609353037093FF
:10040000540380935503909356031F910F91FF90CF
:10041000EF90DF90CF90BF90AF900895AF92BF92D2
:10042000CF92DF92EF92FF920F931F93392F40915B
:100430004D0350914E0341305105A1F410924E03EB
:1004400010924D0310924F031092500310925103DB
:1004500010925203109253031092540310925503BA
:1004600010925603A0904F03B0905003C0905103D8
:10047000D0905203E0905303F09054030091550341
:1004800010915603282F932F990F990B492F592F0D
:10049000692F792F892FFFD220934F033093500378
:1004A000409351035093520360935303709354034A
:1004B00080935503909356031F910F91FF90EF90F7
:1004C000DF90CF90BF90AF9008950F931F93CF937D
:1004D000DF93CDB7DEB7CB54D1090FB6F894DEBFAA
:1004E0000FBECDBFE0914B03F0914C03E830F10516
:1004F000D0F4E25CFF4FC9C284E088B914C08CE03C
:1005000088B911C088E088B90EC088E188B90BC0ED
:1005100080E188B908C080E388B905C080E288B965
:1005200002C088E488B980914F03909150032091D4
:100530005103309152034091530350915403609101
:100540005503709156037F936F935F934F933F933F
:100550002F939F938F9380E091E09F938F938E01D1
:100560000F5F1F4F1F930F93B7D2C801D4DD0FB693
:10057000F894DEBF0FBECDBFC55BDF4F0FB6F8945A
:10058000DEBF0FBECDBFDF91CF911F910F910895B8
:1005900080914D0390914E03892B91F080914B03F4
:1005A00090914C03019687709078992324F40197D9
:1005B000886F9F6F019690934C0380934B031DC0EF
:1005C00080914B0390914C03019787709078992309
:1005D00024F40197886F9F6F019690934C0380934A
:1005E0004B0380914B0390914C03019631F487E0CB
:1005F00090E090934C0380934B0320914F033091F4
:1006000050034091510350915203609153037091F4
:1006100054038091550390915603AFEF45D2209338
:100620004F03309350034093510350935203609310
:10063000530370935403809355039093560345CF0F
:1006400008958FEF81B910924202109243021092E6
:1006500044021092450216BC8CE787BD82E084BD3F
:1006600083E085BDEEE6F0E080818260808385B323
:10067000827085BB08951F920F920FB60F921124BE
:100680002F933F934F935F936F937F938F939F939A
:10069000AF93BF93EF93FF938091420290914302F7
:1006A000A0914402B09145020196A11DB11D809315
:1006B000420290934302A0934402B093450260919A
:1006C000420270914302809144029091450224E6D7
:1006D00030E040E050E0B7D1672B682B692BA1F4E4
:1006E00020914F0330915003409151035091520398
:1006F0006091530370915403809155039091560378
:10070000A0E0DED109F044DF609142027091430223
:10071000809144029091450224EF31E040E050E0A6
:1007200092D1672B682B692B21F492B180E1892744
:1007300082B9FF91EF91BF91AF919F918F917F917E
:100740006F915F914F913F912F910F900FBE0F903E
:100750001F90189580E090E033DD80E090E047DD69
:1007600088E0EAE0F1E0A8E7B2E001900D928A9516
:10077000E1F7089580E090E053DD80E090E067DDF0
:1007800088E0E2E1F1E0A8E7B2E001900D928A95FD
:10079000E1F7089580E090E013DD80E090E057DD20
:1007A00085E0EAE1F1E0A8E7B2E001900D928A95D8
:1007B000E1F7089580E090E033DD80E090E017DD20
:1007C00086E0EFE1F1E0A8E7B2E001900D928A95B2
:1007D000E1F708956CDD54DD88E0E5E2F1E0A8E79B
:1007E000B2E001900D928A95E1F70895F89429DF1F
:1007F00080DC74DDEFDF8ADD80E090E079DD80E091
:1008000090E07DDD89E0EDE2F1E0A6E4B2E0019068
:100810000D928A95E1F786E492E07DDC8BDD789499
:10082000E12CF12C00E010E00F2EF9E88F2EF1E022
:100830009F2EF02D0F2EFAE66F2EF1E07F2EF02D79
:100840000F2EFDE1CF2EF2E0DF2EF02D0F2EFAE07D
:10085000AF2EB12CF02D7DDC8823E9F390E0FC0174
:10086000E156F109E731F10508F0D3C0EA5BFF4F2B
:100870000CC188EE93E07ADD89E1E6E3F1E0A6E4DD
:10088000B2E001900D928A95E1F786E492E043DCB4
:10089000C0C088EE93E0C2DD8BE1EFE4F1E0A6E4B6
:1008A000B2E001900D928A95E1F786E492E033DCA4
:1008B000B0C0043B110514F40B5F1F4FC80118DDD5
:1008C0001F930F937F926F9286E492E09F938F9392
:1008D00003D186E492E01FDC0F900F900F900F90F1
:1008E0000F900F9096C01016110614F405501109C0
:1008F000C801FEDC1F930F937F926F9286E492E013
:100900009F938F93E9D086E492E005DC0F900F90DF
:100910000F900F900F900F907CC084EBE816F104BD
:100920001CF495E0E90EF11CC701E9DCFF92EF929F
:100930009F928F9286E492E09F938F93CDD086E42E
:1009400092E0E9DB0F900F900F900F900F900F90B7
:1009500060C01E141F041CF485E0E81AF108C701EA
:10096000CEDCFF92EF929F928F9286E492E09F936B
:100970008F93B2D086E492E0CEDB0F900F900F9071
:100980000F900F900F9045C0E5DE88E1E8EAF1E0B6
:10099000A6E4B2E001900D928A95E1F786E492E038
:1009A000BADB37C0E7DE89E1E0ECF1E0A6E4B2E0D3
:1009B00001900D928A95E1F786E492E0ACDB29C0C4
:1009C000F9DE8CE1E9EDF1E0A6E4B2E001900D92F0
:1009D0008A95E1F786E492E09EDB1BC0DBDE8BE1CB
:1009E000E5EFF1E0A6E4B2E001900D928A95E1F71F
:1009F00086E492E090DB0DC0EDDE8DE0E0E1F2E018
:100A0000A6E4B2E001900D928A95E1F786E492E0C7
:100A100082DBFF92EF921F930F93DF92CF92C6E497
:100A2000D2E0DF93CF9358D0CE0175DBB982A88294
:100A3000CE0171DB8DB79EB708960FB6F8949EBFB6
:100A40000FBE8DBF08CFA1E21A2EAA1BBB1BFD0152
:100A50000DC0AA1FBB1FEE1FFF1FA217B307E4079D
:100A6000F50720F0A21BB30BE40BF50B661F771FF5
:100A7000881F991F1A9469F76095709580959095D5
:100A80009B01AC01BD01CF010895EE0FFF1F059042
:100A9000F491E02D09942A0D3B1D4C1D5D1D6E1D2A
:100AA0007F1D801F911F08950024A7FD00942A0F29
:100AB000301D401D501D601D701D801D901D08952E
:100AC0000024A7FD00942A17300540055005600555
:100AD0007005800590050895AEE0B0E0E1E7F5E02F
:100AE000AAC20D891E8986E08C831A8309838FEF41
:100AF0009FE79E838D83AE01475E5F4F6F89788D40
:100B0000CE01019608D0EF81F885E00FF11F108229
:100B10002E96E4E0ACC2ABE0B0E0E0E9F5E07DC2E7
:100B20006C017B018A01FC0117821682838181FF9F
:100B3000BFC1CE0101963C01F6019381F70193FDFF
:100B4000859193FF81917F01882309F4ADC185329E
:100B500039F493FD859193FF81917F01853221F4D2
:100B6000B60190E0C0D1E8CF912C212C312CFFE1CF
:100B7000F315D8F08B3279F038F4803279F0833283
:100B8000A1F4232D20611DC08D3261F0803369F402
:100B9000232D216016C0832D8260382EE32DE46062
:100BA0003E2E2AC0F32DF8601DC037FC2DC020ED6D
:100BB000280F2A3040F08E32B9F436FC75C1232D4F
:100BC0002064322E19C036FE06C08AE0989E200DA1
:100BD0001124922E11C0EAE02E9E200D1124222E07
:100BE000F32DF0623F2E08C08C3621F4832D8068EF
:100BF000382E02C0883641F4F70193FD859193FFAA
:100C000081917F018111B3CF982F9F7D95549330AF
:100C100028F40C5F1F4F9FE399830DC0833631F09A
:100C2000833771F0833509F055C020C0F801808109
:100C300089830E5F1F4F88248394912C530112C027
:100C40002801F2E04F0E511CF801A080B18036FE61
:100C500003C0692D70E002C06FEF7FEFC50138D18E
:100C60004C018201F32DFF773F2E15C0280122E0B1
:100C7000420E511CF801A080B18036FE03C0692DE0
:100C800070E002C06FEF7FEFC50117D14C01F32D6B
:100C9000F0683F2E820133FC19C0822D90E0881647
:100CA0009906A0F4B60180E290E01DD12A94F5CF18
:100CB000F50137FC859137FE81915F01B60190E027
:100CC00012D121102A9421E0821A910881149104F2
:100CD00079F7E1C0843611F0893639F5F80137FE2D
:100CE00007C060817181828193810C5F1F4F08C0B2
:100CF00060817181072E000C880B990B0E5F1F4FCE
:100D0000F32DFF763F2E97FF09C090958095709543
:100D100061957F4F8F4F9F4FF0683F2E2AE030E064
:100D2000A3011DD1882E861844C0853731F4232DA8
:100D30002F7EB22E2AE030E025C0932D997FB92E68
:100D40008F36C1F018F4883579F0AEC0803719F0CD
:100D5000883721F0A9C0E92FE061BE2EB4FE0DC096
:100D6000FB2DF460BF2E09C034FE0AC0292F266077
:100D7000B22E06C028E030E005C020E130E002C01D
:100D800020E132E0F801B7FE07C060817181828105
:100D900093810C5F1F4F06C06081718180E090E0FD
:100DA0000E5F1F4FA301DBD0882E8618FB2DFF7727
:100DB0003F2E36FE0DC0232D2E7FA22E891458F40F
:100DC00034FE0BC032FC09C0832D8E7EA82E05C0D8
:100DD000B82CA32C03C0B82C01C0B92CA4FE0FC0A2
:100DE000FE01E80DF11D8081803321F49A2D997E5A
:100DF000A92E09C0A2FE06C0B394B39404C08A2DE4
:100E0000867809F0B394A3FC10C0A0FE06C0B2140B
:100E100080F4280C922C9B180DC0B21458F4B60123
:100E200080E290E060D0B394F8CFB21418F42B189D
:100E300002C0982C212CA4FE0FC0B60180E390E0E4
:100E400052D0A2FE16C0A1FC03C088E790E002C009
:100E500088E590E0B6010CC08A2D867851F0A1FE9D
:100E600002C08BE201C080E2A7FC8DE2B60190E0F7
:100E70003AD0891430F4B60180E390E034D09A94EB
:100E8000F8CF8A94F301E80DF11D8081B60190E05E
:100E90002AD08110F6CF222009F44ECEB60180E28E
:100EA00090E021D02A94F7CFF6018681978102C085
:100EB0008FEF9FEF2B96E2E1CCC0FC0105906150D3
:100EC00070400110D8F7809590958E0F9F1F089560
:100ED000FC016150704001900110D8F78095909509
:100EE0008E0F9F1F08950F931F93CF93DF93FB01E6
:100EF000238121FD03C08FEF9FEF2CC022FF16C07E
:100F000046815781248135814217530744F4A081DB
:100F1000B1819D012F5F3F4F318320838C932681C8
:100F200037812F5F3F4F3783268314C08B01EC013D
:100F3000FB010084F185E02D0995892BE1F6D801AC
:100F400016968D919C911797019617969C938E9368
:100F50001697CE01DF91CF911F910F910895FA015D
:100F6000AA27283051F1203181F1E8946F936E7FE8
:100F70006E5F7F4F8F4F9F4FAF4FB1E03ED0B4E0D9
:100F80003CD0670F781F891F9A1FA11D680F791F1A
:100F90008A1F911DA11D6A0F711D811D911DA11D2B
:100FA00020D009F468943F912AE0269F112430193B
:100FB000305D3193DEF6CF010895462F4770405DD6
:100FC0004193B3E00FD0C9F7F6CF462F4F70405D85
:100FD0004A3318F0495D31FD4052419302D0A9F7E0
:100FE000EACFB4E0A6959795879577956795BA95DA
:100FF000C9F700976105710508959B01AC010A2EA0
:1010000006945795479537952795BA95C9F7620F76
:10101000731F841F951FA01D08952F923F924F921A
:101020005F926F927F928F929F92AF92BF92CF9278
:10103000DF92EF92FF920F931F93CF93DF93CDB781
:10104000DEB7CA1BDB0B0FB6F894DEBF0FBECDBFF9
:1010500009942A88398848885F846E847D848C84CA
:101060009B84AA84B984C884DF80EE80FD800C81D3
:101070001B81AA81B981CE0FD11D0FB6F894DEBFB6
:0C1080000FBECDBFED010895F894FFCF26
:10108C00737465703A2025640A00466F727761723A
:10109C00640052657665727365004C656674005227
:1010AC00696768740053746F707065640052656191
:1010BC00647921200A0057696E6368206D6F76652C
:1010CC0064206F6E6520737465702075700A00570C
:1010DC00696E6368206D6F766564206F6E65207332
:1010EC0074657020646F776E0A00536572766F209A
:1010FC0031206D6F76656420746F20706F73697426
:10110C00696F6E2025642A0A00536572766F20324F
:10111C00206D6F76656420746F20706F73697469CD
:10112C006F6E2025642A0A00436172206973206D5A
:10113C006F76696E6720666F7277617264730A00EE
:10114C00436172206973206D6F76696E67206261EE
:10115C00636B77617264730A004361722069732058
:10116C006D6F76696E6720746F2074686520726984
:10117C006768740A00436172206973206D6F766929
:10118C006E6720746F20746865206C6566740A0045
:10119C004361722073746F707065640A00537973C5
:1011AC005374613A205331706F733D25642C205376
:0A11BC0032706F733D2564200A00B5
:00000001FF
