S00E000044656D6F37352E7372656325
S113000054C000006EC000006CC000006AC0000054
S113001068C0000066C0000064C0000062C0000048
S113002060C000005EC000005CC000005AC0000058
S113003058C0000056C0000054C0000052C0000068
S11300409AC300004EC000004CC000004AC000002B
S11300507EC0000046C0000044C0000042C0000052
S113006040C000003EC000003CC000003AC0000098
S113007038C0000036C0000034C00000F004AB05F6
S1130080AB054C053205AB05AB05AB056605820532
S11300909E0590057405AB05AB05AB05E004AB0507
S11300A01905AB05AB05AB05000511241FBECFEF49
S11300B0D8E0DEBFCDBF12E0A0E0B1E0E2E2F2E1C1
S11300C002C005900D92A838B107D9F723E0A8E83B
S11300D0B2E001C01D92A73DB207E1F733D40C94FE
S11300E00F098ECF1092C50083E38093C400A1EC66
S11300F0B0E088E18C93E2ECF0E08EE0808388E964
S11301008C9386E080830895CF93DF93DC019C91E8
S1130110992369F01196E0ECF0E0C6ECD0E0292FC9
S1130120908195FFFDCF28839D919111F8CFE0EC4C
S1130130F0E0808185FFFDCF8DE08093C600DF91E4
S1130140CF910895809198031092980308951F9277
S11301500F920FB60F9211248F938091C600809353
S113016098038F910F900FBE0F901F901895892BB5
S113017039F4672B11F41BB8089588E08BB90895FE
S1130180672B19F484E08BB908958CE08BB908953A
S1130190892B39F4672B11F415B8089580E185B9DA
S11301A00895672B19F488E085B9089588E185B925
S11301B0089510928B0210928A02609188027091C5
S11301C0890280E090E0E4DF81E090E090938F0288
S11301D080938E0260918C0270918D02C8CF089535
S11301E0109289021092880260E070E080918A0285
S11301F090918B02CDDF81E090E090938D0280930B
S11302008C0261E070E080918E0290918F02AFCFFA
S1130210089581E090E090938B0280938A0260912C
S1130220880270918902B4DF10928F0210928E02BC
S113023060918C0270918D0280E090E098CF0895D7
S113024081E090E0909389028093880261E070E0FD
S113025080918A0290918B029BDF10928D02109202
S11302608C0260E070E080918E0290918F027FCFCB
S1130270089510928B0210928A0260918802709104
S1130280890280E090E084DF10928F0210928E0247
S113029060918C0270918D0280E090E068CF0895A7
S11302A0109289021092880260E070E080918A02C4
S11302B090918B026DDF10928D0210928C0260E09F
S11302C070E080918E0290918F0251CF089584B195
S11302D0886184B98AB18C608AB98FEF84B98AB98C
S11302E008958DE790E090938900809388000895A5
S11302F08DE790E090938B0080938A000895E0E866
S1130300F0E08081826A8083E1E8F0E080818B61A3
S1130310808383EC99E090938700809386008AB170
S113032080638AB9089587B18C6387B910929A0360
S11303301092990310929C0310929B0310929D03B8
S113034010929E0310929F031092A0031092A10397
S11303501092A2031092A3031092A4030895BF92D3
S1130360CF92DF92EF92FF920F931F93CF93DF937D
S11303707C0180919B0390919C03892BB1F481E0D3
S113038090E090939C0380939B0310929D031092A2
S11303909E0310929F031092A0031092A103109247
S11303A0A2031092A3031092A4031E141F040CF0C2
S11303B042C0C0E0D0E020919D0330919E03409163
S11303C09F035091A0036091A1037091A2038091B7
S11303D0A3039091A403E0919D03B0909E03C09069
S11303E09F03D090A0031091A103B091A203A09108
S11303F0A303F091A40301E0F7D3E2602E2BB32A08
S1130400C42AD52A162BB72B8A2B9F2B20939D0306
S1130410B0929E03C0929F03D092A0031093A103B5
S1130420B093A2038093A3039093A4032196EC16A4
S1130430FD0609F0C0CFDF91CF911F910F91FF907E
S1130440EF90DF90CF90BF900895BF92CF92DF924C
S1130450EF92FF920F931F93CF93DF937C018091D0
S11304609B0390919C030197A1F410929C0310921A
S11304709B0310929D0310929E0310929F0310926F
S1130480A0031092A1031092A2031092A30310924E
S1130490A4031E141F040CF042C0C0E0D0E020915D
S11304A09D0330919E0340919F035091A00360915E
S11304B0A1037091A2038091A3039091A403E091FE
S11304C09D03B0909E03C0909F03D090A003109111
S11304D0A103B091A203A091A303F091A40301E0AE
S11304E083D3E2602E2BB32AC42AD52A162BB72B2A
S11304F08A2B9F2B20939D03B0929E03C0929F034F
S1130500D092A0031093A103B093A2038093A303FA
S11305109093A4032196EC16FD0609F0C0CFDF9159
S1130520CF911F910F91FF90EF90DF90CF90BF90EC
S113053008950F931F93CF93DF93CDB7DEB7CB54BA
S1130540D1090FB6F894DEBF0FBECDBF60919903F9
S113055070919A0363707078772334F46150710951
S11305606C6F7F6F6F5F7F4F6E5F7F4F80919903DA
S113057090919A03019683709078992324F40197BB
S11305808C6F9F6F019602962091990330919A0384
S11305902E5F3F4F23703078332334F421503109D8
S11305A02C6F3F6F2F5F3F4FF901329620919903D3
S11305B030919A032D5F3F4F23703078332334F406
S11305C0215031092C6F3F6F2F5F3F4FA9014E5FC0
S11305D05F4F18B121E030E0D901062E02C0AA0F06
S11305E0BB1F0A94E2F7A12BA8B918B1D901082EB0
S11305F002C0AA0FBB1F0A94E2F7A12BA8B9B8B195
S113060089010E2E02C0000F111F0A94E2F7A02FD9
S1130610A095AB23A8B9A8B1042E02C0220F331FA2
S11306200A94E2F720952A2328B9A0919903B0915E
S11306309A0320919B0330919C035F934F93FF9304
S1130640EF939F938F937F936F93BF93AF933F9356
S11306502F9380E091E09F938F938E010F5F1F4F44
S11306601F930F9304D3C8014FDD0FB6F894DEBF78
S11306700FBECDBFC55BDF4F0FB6F894DEBF0FBE14
S1130680CDBFDF91CF911F910F9108950F9380916A
S11306909B0390919C03892B91F0809199039091F5
S11306A09A03019683709078992324F401978C6FB0
S11306B09F6F019690939A03809399031DC0809134
S11306C0990390919A03019783709078992324F465
S11306D001978C6F9F6F019690939A03809399036F
S11306E08091990390919A03019631F483E090E00C
S11306F090939A038093990320919D0330919E03D4
S113070040919F035091A0036091A1037091A203B3
S11307108091A3039091A40301E081D220939D03CF
S113072030939E0340939F035093A0036093A103CF
S11307307093A2038093A3039093A403FADE0F9112
S113074008958FEF81B91092900210929102109245
S113075092021092930216BC8CE787BD82E084BD9E
S113076083E085BDEEE6F0E080818260808385B31E
S1130770827085BB08951F920F920FB60F921124B9
S11307802F933F934F935F936F937F938F939F9395
S1130790AF93BF93EF93FF93809190029091910256
S11307A0A0919202B09193020196A11DB11D809374
S11307B0900290939102A0939202B093930260915D
S11307C0900270919102809192029091930229E19A
S11307D030E040E050E0E0D1672B682B692BA1F4B6
S11307E020919D0330919E0340919F035091A0035B
S11307F06091A1037091A2038091A3039091A4033B
S1130800A0E029D209F042DF609190027091910238
S1130810809192029091930224EF31E040E050E005
S1130820BBD1672B682B692B81F592B180E18927B5
S113083082B980919D0390919E0320919F033091F2
S1130840A0034091A1035091A2036091A30370916E
S1130850A4037F936F935F934F933F932F939F933F
S11308608F9386E491E09F938F9385EA93E09F931F
S11308708F93FDD185EA93E047DC8DB79EB70C9644
S11308800FB6F8949EBF0FBE8DBFFF91EF91BF913D
S1130890AF919F918F917F916F915F914F913F9114
S11308A02F910F900FBE0F901F90189580E090E04D
S11308B080DC80E090E094DC88E0E8E5F1E0A6EC00
S11308C0B2E001900D928A95E1F7089580E090E0FE
S11308D0A0DC80E090E0B4DC88E0E0E6F1E0A6ECA7
S11308E0B2E001900D928A95E1F7089580E090E0DE
S11308F060DC80E090E0A4DC85E0E8E6F1E0A6ECD2
S1130900B2E001900D928A95E1F7089580E090E0BD
S113091080DC80E090E064DC86E0EDE6F1E0A6ECCB
S1130920B2E001900D928A95E1F70895B9DCA1DC5B
S113093088E0E3E7F1E0A6ECB2E001900D928A953D
S1130940E1F70895F894FDDECDDBC1DCEFDFD7DC01
S113095080E090E0C6DC80E090E0CADC89E0EBE770
S1130960F1E0A4E9B2E001900D928A95E1F784E9FF
S113097092E0CADBD8DC789400E010E0C0E0D0E07C
S11309800F2EF7EDAF2EF1E0BF2EF02D0F2EF8EB6A
S1130990CF2EF1E0DF2EF02D0F2EFBE6EF2EF2E04E
S11309A0FF2EF02DCFDB8823E9F390E0FC01E15624
S11309B0F109E731F10508F0CEC0E25CFF4F0EC14A
S11309C08AE090E0CCDC89E1E4E8F1E0A4E9B2E07B
S11309D001900D928A95E1F784E992E095DBBBC022
S11309E08AE090E032DD8BE1EDE9F1E0A4E9B2E0E8
S11309F001900D928A95E1F784E992E085DBABC022
S1130A00C43BD1050CF42596CE016BDCDF93CF9368
S1130A10DF92CF9284E992E09F938F9328D184E967
S1130A2092E072DB0F900F900F900F900F900F9049
S1130A3092C01C161D060CF42597CE0152DCDF93E0
S1130A40CF93DF92CF9284E992E09F938F930FD15B
S1130A5084E992E059DB0F900F900F900F900F9064
S1130A600F9079C0043B110514F40B5F1F4FC801AC
S1130A703FDC1F930F93BF92AF9284E992E09F9360
S1130A808F93F5D084E992E03FDB0F900F900F90A5
S1130A900F900F900F905FC01016110614F40550BC
S1130AA01109C80125DC1F930F93BF92AF9284E90B
S1130AB092E09F938F93DBD084E992E025DB0F9043
S1130AC00F900F900F900F900F9045C0EFDE88E1CC
S1130AD0E6EFF1E0A4E9B2E001900D928A95E1F726
S1130AE084E992E011DB37C0F1DE89E1EEE0F2E067
S1130AF0A4E9B2E001900D928A95E1F784E992E0CD
S1130B0003DB29C003DF8CE1E7E2F2E0A4E9B2E011
S1130B1001900D928A95E1F784E992E0F5DA1BC021
S1130B20E5DE8BE1E3E4F2E0A4E9B2E001900D92AA
S1130B308A95E1F784E992E0E7DA0DC0F7DE8DE00B
S1130B40EEE5F2E0A4E9B2E001900D928A95E1F7B6
S1130B5084E992E0D9DA1F930F93DF93CF93FF9246
S1130B60EF920F2EF4E98F2EF2E09F2EF02D9F923C
S1130B708F927DD0C401C8DA8AE090E0F4019183B9
S1130B808083C401C1DA8DB79EB708960FB6F89476
S1130B909EBF0FBE8DBF06CFA1E21A2EAA1BBB1BA0
S1130BA0FD010DC0AA1FBB1FEE1FFF1FA217B30735
S1130BB0E407F50720F0A21BB30BE40BF50B661F4B
S1130BC0771F881F991F1A9469F76095709580950F
S1130BD090959B01AC01BD01CF010895EE0FFF1F5D
S1130BE00590F491E02D09940F93083090F0982F1C
S1130BF0872F762F652F542F432F322F222708500B
S1130C00F4CF220F331F441F551F661F771F881F01
S1130C10991F0A95B2F70F91089597FB10F816944F
S1130C2000080F93083098F00850232F342F452FD5
S1130C30562F672F782F892F902DF4CF05949795F1
S1130C4087957795679557954795379527950A958D
S1130C50AAF70F9108950024A7FD00942A173005E0
S1130C604005500560057005800590050895AEE0C7
S1130C70B0E0ECE3F6E0AAC20D891E8986E08C831D
S1130C801A8309838FEF9FE79E838D83AE01475EAE
S1130C905F4F6F89788DCE01019608D0EF81F8857A
S1130CA0E00FF11F10822E96E4E0ACC2ABE0B0E09E
S1130CB0EBE5F6E07DC26C017B018A01FC01178241
S1130CC01682838181FFBFC1CE0101963C01F601EA
S1130CD09381F70193FD859193FF81917F0188238F
S1130CE009F4ADC1853239F493FD859193FF819167
S1130CF07F01853221F4B60190E0C0D1E8CF912C78
S1130D00212C312CFFE1F315D8F08B3279F038F433
S1130D10803279F08332A1F4232D20611DC08D32FD
S1130D2061F0803369F4232D216016C0832D826025
S1130D30382EE32DE4603E2E2AC0F32DF8601DC04A
S1130D4037FC2DC020ED280F2A3040F08E32B9F444
S1130D5036FC75C1232D2064322E19C036FE06C020
S1130D608AE0989E200D1124922E11C0EAE02E9E56
S1130D70200D1124222EF32DF0623F2E08C08C3654
S1130D8021F4832D8068382E02C0883641F4F7019F
S1130D9093FD859193FF81917F018111B3CF982FAA
S1130DA09F7D9554933028F40C5F1F4F9FE39983E4
S1130DB00DC0833631F0833771F0833509F055C0A7
S1130DC020C0F801808189830E5F1F4F882483949B
S1130DD0912C530112C02801F2E04F0E511CF8016E
S1130DE0A080B18036FE03C0692D70E002C06FEFB1
S1130DF07FEFC50138D14C018201F32DFF773F2EDF
S1130E0015C0280122E0420E511CF801A080B180D7
S1130E1036FE03C0692D70E002C06FEF7FEFC5019D
S1130E2017D14C01F32DF0683F2E820133FC19C019
S1130E30822D90E088169906A0F4B60180E290E035
S1130E401DD12A94F5CFF50137FC859137FE8191A8
S1130E505F01B60190E012D121102A9421E0821A98
S1130E6091088114910479F7E1C0843611F0893630
S1130E7039F5F80137FE07C0608171818281938161
S1130E800C5F1F4F08C060817181072E000C880B16
S1130E90990B0E5F1F4FF32DFF763F2E97FF09C06E
S1130EA090958095709561957F4F8F4F9F4FF06817
S1130EB03F2E2AE030E0A3011DD1882E861844C0BD
S1130EC0853731F4232D2F7EB22E2AE030E025C061
S1130ED0932D997FB92E8F36C1F018F4883579F0A7
S1130EE0AEC0803719F0883721F0A9C0E92FE0613E
S1130EF0BE2EB4FE0DC0FB2DF460BF2E09C034FE1F
S1130F000AC0292F2660B22E06C028E030E005C0B2
S1130F1020E130E002C020E132E0F801B7FE07C072
S1130F2060817181828193810C5F1F4F06C0608153
S1130F30718180E090E00E5F1F4FA301DBD0882E0B
S1130F408618FB2DFF773F2E36FE0DC0232D2E7FF6
S1130F50A22E891458F434FE0BC032FC09C0832D30
S1130F608E7EA82E05C0B82CA32C03C0B82C01C0BB
S1130F70B92CA4FE0FC0FE01E80DF11D8081803361
S1130F8021F49A2D997EA92E09C0A2FE06C0B3941D
S1130F90B39404C08A2D867809F0B394A3FC10C0DE
S1130FA0A0FE06C0B21480F4280C922C9B180DC02D
S1130FB0B21458F4B60180E290E060D0B394F8CF54
S1130FC0B21418F42B1802C0982C212CA4FE0FC0C4
S1130FD0B60180E390E052D0A2FE16C0A1FC03C08B
S1130FE088E790E002C088E590E0B6010CC08A2D45
S1130FF0867851F0A1FE02C08BE201C080E2A7FC1A
S11310008DE2B60190E03AD0891430F4B60180E361
S113101090E034D09A94F8CF8A94F301E80DF11D4E
S11310208081B60190E02AD08110F6CF222009F405
S11310304ECEB60180E290E021D02A94F7CFF6019B
S11310408681978102C08FEF9FEF2B96E2E1CCC09F
S1131050FC010590615070400110D8F7809590957F
S11310608E0F9F1F0895FC01615070400190011084
S1131070D8F7809590958E0F9F1F08950F931F9317
S1131080CF93DF93FB01238121FD03C08FEF9FEFFB
S11310902CC022FF16C04681578124813581421716
S11310A0530744F4A081B1819D012F5F3F4F3183E9
S11310B020838C93268137812F5F3F4F378326838C
S11310C014C08B01EC01FB010084F185E02D09952E
S11310D0892BE1F6D80116968D919C91179701966C
S11310E017969C938E931697CE01DF91CF911F9103
S11310F00F910895FA01AA27283051F1203181F186
S1131100E8946F936E7F6E5F7F4F8F4F9F4FAF4F0B
S1131110B1E03ED0B4E03CD0670F781F891F9A1F1E
S1131120A11D680F791F8A1F911DA11D6A0F711DD2
S1131130811D911DA11D20D009F468943F912AE0DE
S1131140269F11243019305D3193DEF6CF010895C6
S1131150462F4770405D4193B3E00FD0C9F7F6CFF7
S1131160462F4F70405D4A3318F0495D31FD4052BF
S1131170419302D0A9F7EACFB4E0A6959795879555
S113118077956795BA95C9F7009761057105089534
S11311909B01AC010A2E06945795479537952795E0
S11311A0BA95C9F7620F731F841F951FA01D089578
S11311B02F923F924F925F926F927F928F929F9263
S11311C0AF92BF92CF92DF92EF92FF920F931F9351
S11311D0CF93DF93CDB7DEB7CA1BDB0B0FB6F89402
S11311E0DEBF0FBECDBF09942A88398848885F8442
S11311F06E847D848C849B84AA84B984C884DF80B3
S1131200EE80FD800C811B81AA81B981CE0FD11D96
S11312100FB6F894DEBF0FBECDBFED010895F8946C
S1051220FFCFFA
S113122273746570706572446972656374696F6E14
S11312323A2025640963757272656E74506F73691E
S113124274696F6E3A2025640972303A2025640964
S113125272313A2025640972323A202564097233C4
S11312623A2025640A00737465707065725175655D
S113127275653A2025750A00466F727761726400BB
S113128252657665727365004C65667400526967CF
S113129268740053746F7070656400526561647998
S11312A221200A0057696E6368206D6F7665642099
S11312B26F6E6520737465702075700A0057696ECD
S11312C26368206D6F766564206F6E652073746544
S11312D27020646F776E0A00536572766F20312036
S11312E26D6F76656420746F20706F736974696FB3
S11312F26E2025642A0A00536572766F2032206DAF
S11313026F76656420746F20706F736974696F6E91
S11313122025642A0A00436172206973206D6F7666
S1131322696E6720666F7277617264730A00436143
S113133272206973206D6F76696E67206261636BD8
S113134277617264730A00436172206973206D6F5E
S113135276696E6720746F207468652072696768A5
S1131362740A00436172206973206D6F76696E6737
S113137220746F20746865206C6566740A0043618A
S1131382722073746F707065640A005379735374B6
S1131392613A205331706F733D25642C20533270AF
S10B13A26F733D2564200A006D
S9030000FC
