:1000000098C00000B1C00000AFC00000ADC000004B
:10001000ABC00000A9C00000A7C00000A5C0000040
:10002000A3C000009EC200009FC000009DC0000051
:100030009BC0000099C0000097C0000095C0000060
:1000400093C0000091C000008FC000008DC0000070
:100050008BC0000089C0000087C0000085C0000080
:1000600083C0000081C000007FC000007DC0000090
:100070007BC0000079C0000077C0000010052B0590
:100080002B052B052B052B052B052B052B052B05F0
:100090002B052B052B052B052B052B052B052B05E0
:1000A0002B052B052B052B052B052B052B052B05D0
:1000B0002B052B052B052B052B052B052B052B05C0
:1000C0002B052B052B052B052B052B052B052B05B0
:1000D0002B052B052B052B052B052B052B052B05A0
:1000E0002B052B052B052B052B052B052B052B0590
:1000F0002B052B052B052B052B052B052B05E003CD
:100100002B052B05800461042B052B052B05A00472
:10011000D8041005F404BC042B052B052B05C203E1
:10012000410420042B052B052B05FE038A032B0518
:10013000A60311241FBECFEFD8E0DEBFCDBF12E073
:10014000A0E0B1E0EEE6F0E102C005900D92AA3A1F
:10015000B107D9F722E0AAEAB2E001C01D92A43F9C
:10016000B207E1F76FD281C74BCF1092C50083E38E
:100170008093C400A1ECB0E088E18C93E2ECF0E065
:100180008EE0808388E98C9386E080830895CF9306
:10019000DF93DC019C91992369F01196E0ECF0E08B
:1001A000C6ECD0E0292F908195FFFDCF28839D914B
:1001B0009111F8CFE0ECF0E0808185FFFDCF8DE07C
:1001C0008093C600DF91CF910895E0ECF0E080814C
:1001D0008823ECF78091C6000895892B39F4672BAA
:1001E00011F41BB8089588E08BB90895672B19F4B2
:1001F00084E08BB908958CE08BB90895892B39F48C
:10020000672B11F415B8089580E185B90895672B1F
:1002100019F488E085B9089588E185B908951092A8
:10022000AD021092AC026091AA027091AB0280E024
:1002300090E0E4DF81E090E09093B1028093B0021F
:100240006091AE027091AF02C8CF08951092AB02D8
:100250001092AA0260E070E08091AC029091AD0231
:10026000CDDF81E090E09093AF028093AE0261E039
:1002700070E08091B0029091B102AFCF089581E01B
:1002800090E09093AD028093AC026091AA027091CD
:10029000AB02B4DF1092B1021092B0026091AE02D4
:1002A0007091AF0280E090E098CF089581E090E0F7
:1002B0009093AB028093AA0261E070E08091AC025F
:1002C0009091AD029BDF1092AF021092AE0260E0FF
:1002D00070E08091B0029091B1027FCF08951092AA
:1002E000AD021092AC026091AA027091AB0280E064
:1002F00090E084DF1092B1021092B0026091AE02E1
:100300007091AF0280E090E068CF08951092AB0248
:100310001092AA0260E070E08091AC029091AD0270
:100320006DDF1092AF021092AE0260E070E080913B
:10033000B0029091B10251CF089584B1886184B91F
:100340008AB18C608AB98FEF84B98AB9089548EC74
:100350009C01429FC001439F900D11249C01369542
:100360002795A5E7BAEDACD30024880F991F001C90
:10037000880F991F001C892F902D82599F4F9093B1
:10038000890080938800089548EC9C01429FC00139
:10039000439F900D11249C0136952795A5E7BAED52
:1003A0008FD30024880F991F001C880F991F001CF1
:1003B000892F902D82599F4F90938B0080938A00B4
:1003C0000895E0E8F0E08081826A8083E1E8F0E06F
:1003D00080818B61808383EC99E090938700809388
:1003E00086008AB180638AB9089580E288B9089549
:1003F00088B118B80895CF93DF93181619060CF03A
:1004000047C020E030E0B8E4A4E0FCE0E8E078E1B8
:1004100060E150E340E2B8B9C3ECD9E02197F1F7CD
:1004200000C00000A8B9C3ECD9E02197F1F700C0E3
:100430000000F8B9C3ECD9E02197F1F700C0000043
:10044000E8B9C3ECD9E02197F1F700C0000078B912
:10045000C3ECD9E02197F1F700C0000068B9C3EC04
:10046000D9E02197F1F700C0000058B9C3ECD9E0FA
:100470002197F1F700C0000048B9C3ECD9E02197FB
:10048000F1F700C000002F5F3F4F2817390719F61A
:10049000DF91CF910895CF93DF93181619060CF0D2
:1004A00047C020E030E0B4E2A0E2F0E3E0E178E130
:1004B00068E05CE044E0B8B9C3ECD9E02197F1F71B
:1004C00000C00000A8B9C3ECD9E02197F1F700C043
:1004D0000000F8B9C3ECD9E02197F1F700C00000A3
:1004E000E8B9C3ECD9E02197F1F700C0000078B972
:1004F000C3ECD9E02197F1F700C0000068B9C3EC64
:10050000D9E02197F1F700C0000058B9C3ECD9E059
:100510002197F1F700C0000048B9C3ECD9E021975A
:10052000F1F700C000002F5F3F4F2817390719F679
:10053000DF91CF91089589EF8093B300E0EBF0E075
:10054000808182608083E0E7F0E080818260808348
:10055000E1EBF0E080818360808385B3827085BBAE
:1005600008951F920F920FB60F9211248F939F93AD
:10057000AF93BF938091B2029091B302A091B40265
:10058000B091B5020196A11DB11D8093B202909366
:10059000B302A093B402B093B502BF91AF919F9103
:1005A0008F910F900FBE0F901F90189580E090E0F4
:1005B00036DE80E090E04ADE88E0E0E0F1E0AAEE9E
:1005C000B2E001900D928A95E1F7089580E090E005
:1005D00056DE80E090E06ADE88E0E8E0F1E0AAEE36
:1005E000B2E001900D928A95E1F7089580E090E0E5
:1005F00016DE80E090E05ADE86E0E0E1F1E0AAEE6F
:10060000B2E001900D928A95E1F7089580E090E0C4
:1006100036DE80E090E01ADE85E0E6E1F1E0AAEE69
:10062000B2E001900D928A95E1F708956FDE57DEF2
:1006300088E0EBE1F1E0AAEEB2E001900D928A953C
:10064000E1F70895CF93DF93CDB7DEB7C456D10954
:100650000FB6F894DEBF0FBECDBF6DDF86DD6DDE59
:10066000E5DFAFDE8AE590E072DE8AE590E08CDEC1
:1006700088E0EBE1F1E0DE01119601900D928A95A0
:10068000E1F788E0E3E2F1E0DE01D39601900D921C
:100690008A95E1F789E0EBE2F1E0A8EBB2E00190A6
:1006A0000D928A95E1F788E090E09093B7028093ED
:1006B000B60288EB92E06BDD0F2EFAE5EF2EF12CFF
:1006C000F02D0F2EFAE5CF2ED12CF02DCE01019674
:1006D0003C010F2EF1EB2F2EF1E03F2EF02D2E01DD
:1006E00093E3490E511C0F2EFAE08F2E912CF02D22
:1006F000AA24A394B12C69DD082E000C990BAA0B37
:10070000BB0BFC01B097EB35F10508F0A4C1E25C2E
:10071000FF4FD0C16ADE88E0E4E3F1E0D20101904E
:100720000D928A95E1F78FE0ECE3F1E0A8EBB2E0FF
:1007300001900D928A95E1F7AEE0B0E0B093B70278
:10074000A093B60288EB92E022DD85C151DE88E0FD
:10075000E3E2F1E0D20101900D928A95E1F780E1A8
:10076000EBE4F1E0A8EBB2E001900D928A95E1F79D
:10077000EFE0F0E0F093B702E093B60288EB92E08E
:1007800006DD69C189E190E036DE88E0E4E3F1E06E
:10079000D20101900D928A95E1F789E1EBE5F1E054
:1007A000A8EBB2E001900D928A95E1F788E190E024
:1007B0009093B7028093B60288EB92E0E8DC4BC1DD
:1007C00089E190E068DE88E0E4E3F1E0D2010190A5
:1007D0000D928A95E1F78BE1E4E7F1E0A8EBB2E056
:1007E00001900D928A95E1F7AAE1B0E0B093B702CB
:1007F000A093B60288EB92E0CADC2DC1B6E9CB1615
:10080000D1041CF4E5E0CE0ED11CC601A0DDDF92C0
:10081000CF92AFE8B1E0BF93AF9388EB92E09F93A4
:100820008F935DD19093B7028093B60288EB92E0EC
:10083000AEDC0F900F900F900F900F900F900BC1A8
:100840001C141D041CF4F5E0CF1AD108C6017FDD8D
:10085000DF92CF92AFE8B1E0BF93AF9388EB92E025
:100860009F938F933CD19093B7028093B60288EB0D
:1008700092E08DDC0F900F900F900F900F900F90E3
:10088000EAC0F6E9EF16F1041CF485E0E80EF11C6D
:10089000C7017ADDFF92EF923F922F9288EB92E0B0
:1008A0009F938F931CD19093B7028093B60288EBED
:1008B00092E06DDC0F900F900F900F900F900F90C3
:1008C000CAC01E141F041CF495E0E91AF108C70100
:1008D0005BDDFF92EF923F922F9288EB92E09F9325
:1008E0008F93FDD09093B7028093B60288EB92E08D
:1008F0004EDC0F900F900F900F900F900F90ABC0A9
:1009000085E590E041DD1F9285E58F933F922F9220
:1009100088EB92E09F938F93E2D09093B7028093FD
:10092000B60288EB92E033DC0F900F900F900F909F
:100930000F900F900F2EF5E5EF2EF12CF02D8BC0C0
:1009400035DE87E0EFECF1E0D30101900D928A955E
:10095000E1F788E1E6EDF1E0A8EBB2E001900D925D
:100960008A95E1F7A7E1B0E0B093B702A093B60291
:1009700088EB92E00CDC6FC029DE8AE0EEEEF1E05D
:10098000D30101900D928A95E1F789E1E8EFF1E05A
:10099000A8EBB2E001900D928A95E1F7E8E1F0E072
:1009A000F093B702E093B60288EB92E0F0DB53C01D
:1009B0002DDE8EE0E1E1F2E0D30101900D928A9507
:1009C000E1F78BE1EFE1F2E0A8EBB2E001900D92EC
:1009D0008A95E1F78AE190E09093B7028093B6029E
:1009E00088EB92E0D4DB37C001DE8DE0EAE3F2E091
:1009F000D30101900D928A95E1F78CE1E7E4F2E0F2
:100A0000A8EBB2E001900D928A95E1F7ABE1B0E07E
:100A1000B093B702A093B60288EB92E0B8DB1BC09C
:100A200005DE88E0EBE1F1E0D30101900D928A95BB
:100A3000E1F78DE0E3E6F2E0A8EBB2E001900D9281
:100A40008A95E1F7ECE0F0E0F093B702E093B602AC
:100A500088EB92E09CDB08EB12E0D8018D929C922F
:100A6000B092B702A092B602C80191DB5F924F929A
:100A70007F926F92FF92EF92DF92CF9280E792E0A7
:100A80009F938F931F930F932AD09093B7028093D5
:100A9000B602C8017CDBF80191828082B092B70275
:100AA000A092B602C80173DB0FB6F894DEBF0FBE8A
:100AB000CDBF21CEEE0FFF1F0590F491E02D0994DC
:100AC000A29FB001B39FC001A39F700D811D11248F
:100AD000911DB29F700D811D1124911D0895AEE0EE
:100AE000B0E0E4E7F5E098C20D891E8986E08C83CA
:100AF0001A8309838FEF9FE79E838D83AE01475E44
:100B00005F4F6F89788DCE01019609D02F8138858E
:100B1000F801E20FF31F10822E96E4E099C2ACE0D8
:100B2000B0E0E4E9F5E06AC27C016B018A01FC01F6
:100B300017821682838181FFB0C1CE0101964C01DC
:100B4000F7019381F60193FD859193FF81916F01E8
:100B5000882309F49EC1853239F493FD859193FF72
:100B600081916F01853221F4B70190E0B1D1E8CFD6
:100B7000512C312C20E02032A0F48B3269F030F47B
:100B8000803259F0833269F420612CC08D3239F003
:100B9000803339F4216026C02260246023C028609D
:100BA00021C027FD27C030ED380F3A3078F426FFFA
:100BB00006C0FAE05F9E300D1124532E13C08AE068
:100BC000389E300D1124332E20620CC08E3221F459
:100BD00026FD5FC1206406C08C3611F4206802C077
:100BE000883641F4F60193FD859193FF81916F0161
:100BF0008111C1CF982F9F7D9554933028F40C5FBD
:100C00001F4FFFE3F9830DC0833631F0833771F056
:100C1000833509F057C021C0F801808189830E5FB8
:100C20001F4F44244394512C540114C03801F2E066
:100C30006F0E711CF801A080B18026FF03C0652DE6
:100C400070E002C06FEF7FEFC5012C8736D12C0119
:100C500083012C852F77222E16C03801F2E06F0E0B
:100C6000711CF801A080B18026FF03C0652D70E0E3
:100C700002C06FEF7FEFC5012C8714D12C012C85AA
:100C80002068222E830123FC19C0832D90E0481692
:100C90005906A0F4B70180E290E01AD13A94F5CF5A
:100CA000F50127FC859127FE81915F01B70190E056
:100CB0000FD131103A94F1E04F1A51084114510408
:100CC00079F7DEC0843611F0893631F5F80127FF57
:100CD00007C060817181828193810C5F1F4F08C0C2
:100CE00060817181072E000C880B990B0E5F1F4FDE
:100CF0002F76722E97FF09C090958095709561951B
:100D00007F4F8F4F9F4F2068722E2AE030E0A40162
:100D100017D1A82EA81843C0853729F42F7EB22EEC
:100D20002AE030E025C0F22FF97FBF2E8F36C1F0C8
:100D300018F4883579F0ADC0803719F0883721F084
:100D4000A8C02F2F2061B22EB4FE0DC08B2D846061
:100D5000B82E09C024FF0AC09F2F9660B92E06C086
:100D600028E030E005C020E130E002C020E132E0C0
:100D7000F801B7FE07C060817181828193810C5FA9
:100D80001F4F06C06081718180E090E00E5F1F4FB1
:100D9000A401D6D0A82EA818FB2DFF777F2E76FEB3
:100DA0000BC0372D3E7FA51450F474FE0AC072FCB0
:100DB00008C0372D3E7E05C0BA2C372D03C0BA2C93
:100DC00001C0B52C34FF0DC0FE01EA0DF11D80817C
:100DD000803311F4397E09C032FF06C0B394B39456
:100DE00004C0832F867809F0B39433FD12C030FF1E
:100DF00006C05A2CB31418F4530C5B18B32CB3145C
:100E000060F4B70180E290E03C8762D0B3943C8507
:100E1000F6CFB31410F43B1801C0312C34FF11C0CD
:100E2000B70180E390E03C8753D03C8532FF16C089
:100E300031FD03C088E790E002C088E590E0B7018B
:100E40000CC0832F867851F031FF02C08BE201C0C5
:100E500080E237FD8DE2B70190E03AD0A51430F47E
:100E6000B70180E390E034D05A94F8CFAA94F4010B
:100E7000EA0DF11D8081B70190E02AD0A110F6CFD4
:100E8000332009F45DCEB70180E290E021D03A949E
:100E9000F7CFF7018681978102C08FEF9FEF2C96E5
:100EA000E2E1C8C0FC010590615070400110D8F724
:100EB000809590958E0F9F1F0895FC0161507040A2
:100EC00001900110D8F7809590958E0F9F1F08957F
:100ED0000F931F93CF93DF93FB01238121FD03C069
:100EE0008FEF9FEF28C022FF16C0468157812481D3
:100EF00035814217530744F4A081B1819D012F5FD2
:100F00003F4F318320838C93268137812F5F3F4F62
:100F10003783268310C0EB01092F182F0084F18539
:100F2000E02D0995892BE1F68E819F8101969F83A3
:100F30008E83812F902FDF91CF911F910F91089574
:100F4000FA01AA27283051F1203181F1E8946F93FA
:100F50006E7F6E5F7F4F8F4F9F4FAF4FB1E03ED0A0
:100F6000B4E03CD0670F781F891F9A1FA11D680F3E
:100F7000791F8A1F911DA11D6A0F711D811D911D71
:100F8000A11D20D009F468943F912AE0269F1124E6
:100F90003019305D3193DEF6CF010895462F47704A
:100FA000405D4193B3E00FD0C9F7F6CF462F4F70A5
:100FB000405D4A3318F0495D31FD4052419302D003
:100FC000A9F7EACFB4E0A6959795879577956795A9
:100FD000BA95C9F700976105710508959B01AC01A9
:100FE0000A2E06945795479537952795BA95C9F7D0
:100FF000620F731F841F951FA01D08952F923F92AB
:101000004F925F926F927F928F929F92AF92BF9218
:10101000CF92DF92EF92FF920F931F93CF93DF93C4
:10102000CDB7DEB7CA1BDB0B0FB6F894DEBF0FBE21
:10103000CDBF09942A88398848885F846E847D846E
:101040008C849B84AA84B984C884DF80EE80FD8070
:101050000C811B81AA81B981CE0FD11D0FB6F894E6
:0E106000DEBF0FBECDBFED010895F894FFCFA7
:10106E00466F7277617264005265766572736500C1
:10107E005269676874004C6566740053746F7070C3
:10108E0065640052656C61786564005265616479CF
:10109E0021200A00486F6C64696E670057696E63A1
:1010AE006820686F6C64696E670A0057696E6368C2
:1010BE002072656C65617365640A0057696E6368BA
:1010CE00206D6F766564206F6E6520737465702079
:1010DE0075700A0057696E6368206D6F76656420BF
:1010EE006F6E65207374657020646F776E0A0043AF
:1010FE006C617720736572766F206D6F76656420F4
:10110E00746F20706F736974696F6E2025642A0A7C
:10111E000043616D657261206D6F76656420746F3A
:10112E0020706F736974696F6E2025642A0A006DD2
:10113E006F76696E6700436172206973206D6F76FA
:10114E00696E6720666F7277617264730A007265EA
:10115E0076657273696E6700436172206973206DE4
:10116E006F76696E67206261636B77617264730A72
:10117E00007475726E696E672072696768740043D9
:10118E006172206973206D6F76696E6720746F20AF
:10119E00746865204C6566740A007475726E696EAB
:1011AE0067206C65667400436172206973206D6FF1
:1011BE0076696E6720746F2074686520526967685F
:1011CE00740A004361722073746F707065640A0054
:1011DE00436C617720706F736974696F6E3D25641F
:1011EE000D0A43616D65726120706F736974696F6A
:1011FE006E3D25640D0A526F7665723A25730D0A9F
:0A120E0057696E63683A25730A0001
:00000001FF
