:1000000054C000006DC000006BC0000069C000005B
:1000100067C0000065C0000063C0000061C0000050
:100020005FC0000054C200005BC0000059C0000067
:1000300057C0000055C0000053C0000051C0000070
:100040004FC000004DC000004BC0000049C0000080
:1000500047C0000045C0000043C0000041C0000090
:100060003FC000003DC000003BC0000039C00000A0
:1000700037C0000035C0000033C000003F0331042A
:100080003104B2039203310431043104D203F80382
:100090001E040C04E6033104310431042B03310443
:1000A0007303310431043104530311241FBECFEF15
:1000B000D8E0DEBFCDBF12E0A0E0B1E0E4E6FEE0B4
:1000C00002C005900D92A033B107D9F722E0A0E35A
:1000D000B2E001C01D92AA37B207E1F769D2C0C6EB
:1000E0008FCF1092C50083E38093C400A1ECB0E0F1
:1000F00088E18C93E2ECF0E08EE0808388E98C93D9
:1001000086E080830895CF93DF93DC019C9199234F
:1001100069F01196E0ECF0E0C6ECD0E0292F908178
:1001200095FFFDCF28839D919111F8CFE0ECF0E091
:10013000808185FFFDCF8DE08093C600DF91CF9158
:100140000895E0ECF0E080818823ECF78091C60010
:100150000895892B39F4672B11F41BB8089588E0B2
:100160008BB90895672B19F484E08BB908958CE05E
:100170008BB90895892B39F4672B11F415B80895BC
:1001800080E185B90895672B19F488E085B9089551
:1001900088E185B90895109233021092320260917D
:1001A00030027091310280E090E0E4DF81E090E085
:1001B0009093370280933602609134027091350239
:1001C000C8CF0895109231021092300260E070E0C2
:1001D0008091320290913302CDDF81E090E09093E4
:1001E00035028093340261E070E080913602909194
:1001F0003702AFCF089581E090E09093330280936F
:1002000032026091300270913102B4DF10923702F5
:1002100010923602609134027091350280E090E0D5
:1002200098CF089581E090E090933102809330025E
:1002300061E070E080913202909133029BDF109276
:1002400035021092340260E070E0809136029091A5
:1002500037027FCF089510923302109232026091DC
:1002600030027091310280E090E084DF109237021A
:1002700010923602609134027091350280E090E075
:1002800068CF0895109231021092300260E070E061
:1002900080913202909133026DDF109235021092FC
:1002A000340260E070E0809136029091370251CFC5
:1002B000089584B1886184B98AB18C608AB98FEF5E
:1002C00084B98AB9089548EC9C01429FC001439FBC
:1002D000900D11249C0136952795A5E7BAEDEBD238
:1002E0000024880F991F001C880F991F001C892F5C
:1002F000902D82599F4F9093890080938800089594
:1003000048EC9C01429FC001439F900D11249C0129
:1003100036952795A5E7BAEDCED20024880F991F10
:10032000001C880F991F001C892F902D82599F4F08
:1003300090938B0080938A000895E0E8F0E080813C
:10034000826A8083E1E8F0E080818B61808383ECC6
:1003500099E090938700809386008AB180638AB980
:100360000895CF93DF93181619060CF047C020E0CC
:1003700030E0B4E0ACE0F8E0E8E170E160E350E2E6
:1003800048E4B8B9C3ECD9E02197F1F700C0000008
:10039000A8B9C3ECD9E02197F1F700C00000F8B983
:1003A000C3ECD9E02197F1F700C00000E8B9C3EC35
:1003B000D9E02197F1F700C0000078B9C3ECD9E08B
:1003C0002197F1F700C0000068B9C3ECD9E021978C
:1003D000F1F700C0000058B9C3ECD9E02197F1F75C
:1003E00000C0000048B9C3ECD9E02197F1F700C084
:1003F00000002F5F3F4F2817390719F6DF91CF9183
:100400000895CF93DF93181619060CF047C020E02B
:1004100030E0B4E2A0E2F0E3E0E178E168E05CE043
:1004200044E0B8B9C3ECD9E02197F1F700C000006F
:10043000A8B9C3ECD9E02197F1F700C00000F8B9E2
:10044000C3ECD9E02197F1F700C00000E8B9C3EC94
:10045000D9E02197F1F700C0000078B9C3ECD9E0EA
:100460002197F1F700C0000068B9C3ECD9E02197EB
:10047000F1F700C0000058B9C3ECD9E02197F1F7BB
:1004800000C0000048B9C3ECD9E02197F1F700C0E3
:1004900000002F5F3F4F2817390719F6DF91CF91E2
:1004A000089589EF8093B300E0EBF0E080818260F3
:1004B0008083E0E7F0E0808182608083E1EBF0E020
:1004C00080818360808385B3827085BB08951F928D
:1004D0000F920FB60F9211248F939F93AF93BF93F8
:1004E0008091380290913902A0913A02B0913B027A
:1004F0000196A11DB11D8093380290933902A093FB
:100500003A02B0933B02BF91AF919F918F910F90B0
:100510000FBE0F901F90189580E090E03CDE80E0C9
:1005200090E050DE88E0E0E0F1E0A0E7B2E001908A
:100530000D928A95E1F7089580E090E05CDE80E01E
:1005400090E070DE88E0E8E0F1E0A0E7B2E0019042
:100550000D928A95E1F7089580E090E01CDE80E03E
:1005600090E060DE85E0E0E1F1E0A0E7B2E001903C
:100570000D928A95E1F7089580E090E03CDE80E0FE
:1005800090E020DE86E0E5E1F1E0A0E7B2E0019056
:100590000D928A95E1F7089575DE5DDE88E0EBE166
:1005A000F1E0A0E7B2E001900D928A95E1F708959D
:1005B00078DF97DD7EDEF0DFC0DE80E090E083DE76
:1005C00080E090E09DDE89E0E3E2F1E0AEE3B2E0BE
:1005D00001900D928A95E1F788E090E090933D02BA
:1005E00080933C028EE392E08EDD00E010E0C0E0FC
:1005F000D0E00F2EFBE14F2EF02D0F2EFAE1AF2EA3
:10060000B12CF02D0F2EF9E15F2EF02D0F2EF8E119
:100610006F2E712CF02D0F2EF0E62F2EF1E03F2ED5
:10062000F02D0F2EF3E1EF2EF2E0FF2EF02DCC2473
:10063000C394D12C4E0185DD082E000C990BAA0B1A
:10064000BB0BFC01E156F109E731F10508F009C1E6
:10065000E25CFF4F2AC18AE090E083DEECE2F1E049
:10066000AEE3B2E0852D01900D928A95E1F770928C
:100670003D0260923C028EE392E045DDF2C08AE0EA
:1006800090E0BFDEE5E4F1E0AEE3B2E0842D01905E
:100690000D928A95E1F7B0923D02A0923C028EE362
:1006A00092E031DDDEC086E9881691041CF495E005
:1006B000890E911CC40107DE9F928F923F922F9268
:1006C0008EE392E09F938F9305D190933D028093A8
:1006D0003C028EE392E017DD0F900F900F900F9089
:1006E0000F900F90BEC0181419041CF4A5E08A1ACC
:1006F0009108C401E8DD9F928F923F922F928EE382
:1007000092E09F938F93E6D090933D0280933C02BA
:100710008EE392E0F8DC0F900F900F900F900F9007
:100720000F909FC00639110514F40B5F1F4FC801CD
:10073000E7DD1F930F93AFE7B1E0BF93AF938EE375
:1007400092E09F938F93C6D090933D0280933C029A
:100750008EE392E0D8DC0F900F900F900F900F90E7
:100760000F907FC01016110614F405501109C8012E
:10077000C7DD1F930F93AFE7B1E0BF93AF938EE355
:1007800092E09F938F93A6D090933D0280933C027A
:100790008EE392E0B8DC0F900F900F900F900F90C7
:1007A0000F905FC0B9DE88E1EEE9F1E0AEE3B2E0C0
:1007B00001900D928A95E1F7A7E1B0E0B0933D0278
:1007C000A0933C028EE392E09EDC4BC0B5DEE6EBEC
:1007D000F1E0AEE3B2E0852D01900D928A95E1F74C
:1007E00070923D0260923C028EE392E08CDC39C054
:1007F000C3DEEFECF1E0AEE3B2E08CE101900D92EC
:100800008A95E1F78BE190E090933D0280933C0262
:100810008EE392E078DC25C09FDEEBEEF1E0AEE304
:10082000B2E0842D01900D928A95E1F7B0923D02DD
:10083000A0923C028EE392E066DC13C0ADDEE6E0FF
:10084000F2E0AEE3B2E08DE001900D928A95E1F71F
:10085000ACE0B0E0B0933D02A0933C028EE392E0A6
:1008600052DC1F930F939F928F92FF92EF92CEE3F1
:10087000D2E0DF93CF932ED090933D0280933C0241
:10088000CE0141DC8AE090E099838883D0923D02DA
:10089000C0923C02CE0137DCADB7BEB718960FB69A
:1008A000F894BEBF0FBEADBFC6CEEE0FFF1F0590C2
:1008B000F491E02D0994A29FB001B39FC001A39FC2
:1008C000700D811D1124911DB29F700D811D112489
:1008D000911D0895AEE0B0E0EFE6F4E098C20D8916
:1008E0001E8986E08C831A8309838FEF9FE79E839E
:1008F0008D83AE01475E5F4F6F89788DCE01019683
:1009000009D02F813885F801E20FF31F10822E964F
:10091000E4E099C2ACE0B0E0EFE8F4E06AC27C0148
:100920006B018A01FC0117821682838181FFB0C1AD
:10093000CE0101964C01F7019381F60193FD85915B
:1009400093FF81916F01882309F49EC1853239F4A8
:1009500093FD859193FF81916F01853221F4B70159
:1009600090E0B1D1E8CF512C312C20E02032A0F41E
:100970008B3269F030F4803259F0833269F42061AF
:100980002CC08D3239F0803339F4216026C02260CA
:10099000246023C0286021C027FD27C030ED380F18
:1009A0003A3078F426FF06C0FAE05F9E300D11243D
:1009B000532E13C08AE0389E300D1124332E20624E
:1009C0000CC08E3221F426FD5FC1206406C08C3637
:1009D00011F4206802C0883641F4F60193FD859138
:1009E00093FF81916F018111C1CF982F9F7D955405
:1009F000933028F40C5F1F4FFFE3F9830DC083365B
:100A000031F0833771F0833509F057C021C0F80108
:100A1000808189830E5F1F4F44244394512C5401DD
:100A200014C03801F2E06F0E711CF801A080B18093
:100A300026FF03C0652D70E002C06FEF7FEFC50198
:100A40002C8736D12C0183012C852F77222E16C0BE
:100A50003801F2E06F0E711CF801A080B18026FF12
:100A600003C0652D70E002C06FEF7FEFC5012C87DA
:100A700014D12C012C852068222E830123FC19C05F
:100A8000832D90E048165906A0F4B70180E290E06B
:100A90001AD13A94F5CFF50127FC859127FE819173
:100AA0005F01B70190E00FD131103A94F1E04F1A95
:100AB00051084114510479F7DEC0843611F08936AB
:100AC00031F5F80127FF07C0608171818281938130
:100AD0000C5F1F4F08C060817181072E000C880BCE
:100AE000990B0E5F1F4F2F76722E97FF09C09095BE
:100AF0008095709561957F4F8F4F9F4F2068722E24
:100B00002AE030E0A40117D1A82EA81843C08537E9
:100B100029F42F7EB22E2AE030E025C0F22FF97F93
:100B2000BF2E8F36C1F018F4883579F0ADC080370C
:100B300019F0883721F0A8C02F2F2061B22EB4FE03
:100B40000DC08B2D8460B82E09C024FF0AC09F2FD2
:100B50009660B92E06C028E030E005C020E130E004
:100B600002C020E132E0F801B7FE07C06081718168
:100B7000828193810C5F1F4F06C06081718180E08C
:100B800090E00E5F1F4FA401D6D0A82EA818FB2D11
:100B9000FF777F2E76FE0BC0372D3E7FA51450F4D5
:100BA00074FE0AC072FC08C0372D3E7E05C0BA2C08
:100BB000372D03C0BA2C01C0B52C34FF0DC0FE0187
:100BC000EA0DF11D8081803311F4397E09C032FFB6
:100BD00006C0B394B39404C0832F867809F0B3940D
:100BE00033FD12C030FF06C05A2CB31418F4530C56
:100BF0005B18B32CB31460F4B70180E290E03C873B
:100C000062D0B3943C85F6CFB31410F43B1801C006
:100C1000312C34FF11C0B70180E390E03C8753D002
:100C20003C8532FF16C031FD03C088E790E002C06A
:100C300088E590E0B7010CC0832F867851F031FF32
:100C400002C08BE201C080E237FD8DE2B70190E087
:100C50003AD0A51430F4B70180E390E034D05A9430
:100C6000F8CFAA94F401EA0DF11D8081B70190E05C
:100C70002AD0A110F6CF332009F45DCEB70180E26F
:100C800090E021D03A94F7CFF7018681978102C096
:100C90008FEF9FEF2C96E2E1C8C0FC0105906150F8
:100CA00070400110D8F7809590958E0F9F1F089582
:100CB000FC016150704001900110D8F7809590952B
:100CC0008E0F9F1F08950F931F93CF93DF93FB0108
:100CD000238121FD03C08FEF9FEF28C022FF16C0A4
:100CE00046815781248135814217530744F4A081FE
:100CF000B1819D012F5F3F4F318320838C932681EB
:100D000037812F5F3F4F3783268310C0EB01092FB8
:100D1000182F0084F185E02D0995892BE1F68E814D
:100D20009F8101969F838E83812F902FDF91CF919A
:100D30001F910F910895FA01AA27283051F120310F
:100D400081F1E8946F936E7F6E5F7F4F8F4F9F4F5F
:100D5000AF4FB1E03ED0B4E03CD0670F781F891FA1
:100D60009A1FA11D680F791F8A1F911DA11D6A0F6F
:100D7000711D811D911DA11D20D009F468943F9122
:100D80002AE0269F11243019305D3193DEF6CF0121
:100D90000895462F4770405D4193B3E00FD0C9F7E7
:100DA000F6CF462F4F70405D4A3318F0495D31FD54
:100DB0004052419302D0A9F7EACFB4E0A6959795A7
:100DC000879577956795BA95C9F70097610571057D
:100DD00008959B01AC010A2E0694579547953795C7
:100DE0002795BA95C9F7620F731F841F951FA01D21
:100DF00008952F923F924F925F926F927F928F92BF
:100E00009F92AF92BF92CF92DF92EF92FF920F9399
:100E10001F93CF93DF93CDB7DEB7CA1BDB0B0FB6A3
:100E2000F894DEBF0FBECDBF09942A883988488860
:100E30005F846E847D848C849B84AA84B984C884F6
:100E4000DF80EE80FD800C811B81AA81B981CE0FED
:100E5000D11D0FB6F894DEBF0FBECDBFED010895D2
:040E6000F894FFCF34
:100E6400466F7277617264005265766572736500CD
:100E74004C6566740052696768740053746F7070CF
:100E8400656400526561647921200A0057696E63C4
:100E940068206D6F766564206F6E6520737465706D
:100EA4002075700A0057696E6368206D6F766564FB
:100EB400206F6E65207374657020646F776E0A000E
:100EC400536572766F2031206D6F76656420746F80
:100ED40020706F736974696F6E2025642A0A005349
:100EE4006572766F2032206D6F76656420746F2092
:100EF400706F736974696F6E2025642A0A004361F8
:100F040072206973206D6F76696E6720666F7277E1
:100F1400617264730A00436172206973206D6F7695
:100F2400696E67206261636B77617264730A004360
:100F34006172206973206D6F76696E6720746F200B
:100F44007468652072696768740A00436172206975
:100F540073206D6F76696E6720746F2074686520E6
:100F64006C6566740A004361722073746F707065F7
:100F7400640A005379735374613A205331706F7368
:100F84003D25642C205332706F733D2564200A0084
:00000001FF
