:100000000C943E000C9450000C9450000C94500042
:100010000C9450000C9450000C9450000C94500020
:100020000C9450000C9450000C9450000C94500010
:100030000C9450000C9450000C9450000C94500000
:100040000C9450000C9450000C9450000C945000F0
:100050000C9450000C9450000C9450000C945000E0
:100060000C9450000C9450000C9450000C945000D0
:100070000C9450000C9450000C94500011241FBE9E
:10008000CFEFD8E0DEBFCDBF21E0A0E0B1E001C0FE
:100090001D92A430B207E1F70E945C000C94A70007
:1000A0000C94000081EF84BD8AE085BD17BC18BCAC
:1000B00084B1886184B9089511B88FEF8AB90E941C
:1000C00052000E948600C1E0D0E087E890E00E94E4
:1000D00074001092010110920001D0930301C093AB
:1000E000020180B180B9F1CF9C01ADECBCEC0E9463
:1000F000980096958795969587959093890080931B
:10010000880010928B0010928A000895E0E8F0E0D9
:100110008081826A8083E1E8F0E080818B61808366
:1001200087E893E19093870080938600559A08951D
:10013000A29FB001B39FC001A39F700D811D112428
:10014000911DB29F700D811D1124911D0895F89489
:02015000FFCFDF
:00000001FF
